:020000040800F2
:1000000088B000208D0200083B490008753C0008BC
:100010003949000871180008275500080000000041
:10002000000000000000000000000000CD010008FA
:100030002919000800000000290200082D510008BD
:10004000A7020008A7020008A7020008A7020008EC
:10005000A7020008A7020008A7020008A7020008DC
:10006000A70200082B190008A7020008A702000831
:10007000A7020008A7020008A7020008A7020008BC
:10008000A7020008A7020008A7020008A7020008AC
:10009000A7020008A7020008A7020008A70200089C
:1000A000A7020008A7020008A7020008A70200088C
:1000B000A7020008A7020008A7020008A70200087C
:1000C000A7020008A7020008A7020008A70200086C
:1000D000A7020008A7020008A7020008A70200085C
:1000E000A7020008A7020008A7020008A70200084C
:1000F000A7020008A7020008A7020008A70200083C
:10010000A7020008A7020008A7020008A70200082B
:10011000A7020008A7020008A7020008ED51000886
:10012000A7020008A7020008A7020008A70200080B
:10013000A7020008A7020008A7020008A7020008FB
:10014000A7020008A7020008A7020008A7020008EB
:10015000A7020008A7020008A7020008A7020008DB
:10016000A7020008A7020008A7020008A7020008CB
:10017000A7020008A7020008A7020008000000006C
:10018000A7020008A7020008A7020008A7020008AB
:10019000A7020008A7020008A7020008A70200089B
:1001A000A7020008A7020008A7020008DFF818D07D
:1001B00000F01CFB00F0E0F800480047197D010842
:1001C000AFF3008000F039F988B000202C4B19689B
:1001D0000868B0E8F04F80F30988BFF36F8F4FF0E5
:1001E000000080F311887047000000000848006894
:1001F000006880F308884FF0000080F3148862B62E
:1002000061B6BFF34F8FBFF36F8F00DF00BF00BF3A
:1002100008ED00E0DFF80C00016841F470010160B6
:10022000704700BF88ED00E0EFF30980BFF36F8FE8
:10023000134B1A681EF0100F08BF20ED108A20E93A
:10024000F04F106009B44FF0500080F31188BFF3F5
:100250004F8FBFF36F8F19F0CFF84FF0000080F38E
:10026000118809BC19680868B0E8F04F1EF0100F3B
:1002700008BFB0EC108A80F30988BFF36F8F704716
:100280007C000020EFF3058070470000064880479F
:1002900006480047FEE7FEE7FEE7FEE7FEE7FEE76B
:1002A000FEE7FEE7FEE7FEE7DD510008AD010008CE
:1002B0002DE9F05F0546002092469B46884606469B
:1002C000814640241BE0284641464746224600F02E
:1002D0009FF853465A46C01A914110D3114618460A
:1002E000224600F086F82D1A67EB01084F46224699
:1002F0000120002100F07DF817EB00094E41201E7F
:10030000A4F10104DFDC484631462A464346BDE8F5
:10031000F09F40EA01039B0703D009E008C9121FC0
:1003200008C0042AFAD203E011F8013B00F8013BAF
:10033000521EF9D27047D2B201E000F8012B491EDB
:10034000FBD270470022F6E710B513460A46044672
:100350001946FFF7F0FF204610BD10B5002200E05F
:10036000521C835C8C5CA34201D1002BF8D1D8B223
:10037000E1B2401A10BD000070B5054C054D03E018
:10038000206820448047241DAC42F9D170BD000094
:10039000089B0908189B09082DE9F04107461546F6
:1003A0000E46102017F0DEFC04000AD06760C4E996
:1003B000026500F03DF80168216004600020BDE89E
:1003C000F0810120FBE730B50B46014600202022DA
:1003D000012409E021FA02F59D4205D303FA02F552
:1003E000491B04FA02F52844151EA2F10102F1DCB2
:1003F00030BD202A04DB203A00FA02F100207047C9
:100400009140C2F1200320FA03F319439040704752
:10041000202A04DB203A21FA02F00021704721FA59
:1004200002F3D040C2F120029140084319467047C0
:1004300000487047AC02002070472DE9F0410646A5
:10044000FFF7F6FF8046454613E016B1E068B0427C
:100450000ED120682860D4E90101D8F800708847DF
:10046000204617F0D5F9D8F80000B842EBD100E0EB
:1004700025462C68002CE8D1BDE8F0812DE9FE4F1F
:10048000804681EA0300C00F0C46009021F0004135
:1004900023F00045B8EB0200A94105D240462146B1
:1004A00090461C460B46024623F00040104347D0BE
:1004B000270DC7F30A00C3F30A510290401A0190B6
:1004C00040286BDAC3F3130040F4801B0098924677
:1004D00020B10023D2EB030A63EB0B0B01985946C2
:1004E000C0F140025046FFF784FF06460D465046D5
:1004F0005946019A00F08CF910EB08006141002484
:1005000087EA115284EAE7731A4340D0009A62B333
:10051000019A012A4FEA075215DC001B61EB020128
:100520004FF0004202EA0752CDE90042001C41F5BB
:10053000801132462B4600F08DF903B0BDE8F08FF4
:1005400040462146F9E7001B61EB0201001C41F522
:10055000801300185B412018A2F5001747EB030138
:1005600040EAD570B6196D4111E06D084FEA3606C4
:1005700045EAC0754FEA0752001B61EB0201001CFF
:1005800041F5801149084FEA3000001951413246C7
:100590002B4603B0BDE8F04F00F04DB900980122A2
:1005A00040000023D0EB020263EBE0730098214689
:1005B0004FEAE074B8EB000061EB0401E9E783F077
:1005C00000435BE781F0004158E72DE9FE4F81EAE7
:1005D000030404F0004421F0004100944FF0000BAC
:1005E00023F0004350EA01045ED052EA03045BD0DA
:1005F000C3F30A54C1F30A552C44A4F2F334019412
:10060000A0FB0254C1F3130141F48011C3F313039F
:1006100043F4801301FB024400FB034E840A970A53
:1006200044EA815447EA8357A4FB076802958D0A80
:1006300005FB07854FEA932C04FB0C542705029D0C
:100640004FEA065847EA1637B5EB08056EEB070C7C
:10065000870E920E47EA811742EA8312A7FB020136
:10066000B6EB0B0164EB00042B0D43EA0C335E1870
:1006700044EB1C50DA465146E7FB0201C5F3130474
:100680004FEA0B3343EA14534FEA0432019C43EA26
:100690000603A4F10C040294009CCDE900B400F020
:1006A000D9F803B0BDE8F08F00200146F9E72DE945
:1006B000F04D81EA030404F0004B21F0004514469C
:1006C0004FF0000A23F0004150EA050220D054EA1E
:1006D00001021DD0C5F30A570246C5F31303C1F347
:1006E0001300C1F30A5640F4801543F48013A7EBBE
:1006F0000608101BD64608F2FD3873EB050002D33E
:1007000008F1010801E092185B41B8F1000F03DA2B
:1007100000200146BDE8F08D00204FF48011064610
:1007200084460EE0171B73EB050705D3121B63EB22
:10073000050306434CEA010C49084FEA30009218C1
:100740005B4150EA0107EDD152EA030012D082EA80
:10075000040083EA0501084305D0101BAB4106D213
:100760000122002306E000224FF0004302E06FF078
:10077000010253101AEB06004CEB085110EB0A0073
:1007800041EB0B01BDE8F04D00F055B8C1F30A5242
:10079000C1F3130140F2FF3341F480119A4202DAAF
:1007A00000200146704740F233439A42A2F233429E
:1007B00002DC5242FFF72CBEFFF71BBE30B5041E11
:1007C00071F1000404DB4FF00044404264EB01018E
:1007D000141E73F1000405DB1C464FF00043524227
:1007E00063EB0403994208BF904230BD064C074DAD
:1007F00006E0E06840F0010394E8070098471034F1
:10080000AC42F6D3FFF7D6FC589709087897090849
:10081000202A06DBCB17203A41FA02F043EAE073C4
:1008200006E041FA02F3D040C2F1200291400843B1
:1008300019467047704710B5141E73F1000408DAAA
:10084000401C41F1000192185B411A4301D120F094
:10085000010010BD2DE9F04D92469B4611B1B1FA51
:1008600081F202E0B0FA80F220329046FFF7C1FD3B
:1008700004460F4640EA0A0041EA0B0153465A4635
:10088000084313D0114653EA010019D0C8F14002C1
:100890005046FFF7BDFD05460E46504659464246B6
:1008A000FFF7A7FD084305D0012004E020463946A4
:1008B000BDE8F08D0020054346EAE0762C4337433F
:1008C0000A986305E40AA0EB08000022FD0A44EA46
:1008D00047540A3002D500200146E9E70105101906
:1008E0006941DDE9084500196941BDE8F04DA2E71D
:1008F00030B58C1810F8012B12F00F0301D110F84D
:10090000013B120906D110F8012B03E010F8015B3E
:1009100001F8015B5B1EF9D101E001F8013B521EB9
:10092000FBD1A142E6D3002030BD000010B520214C
:10093000034801F03BFD012800D0002010BD00005D
:100940000008024010B51021034801F02FFD0128D6
:1009500000D0002010BD0000000802402DE9FF413A
:1009600000260B210091062003960121CDE90110FC
:1009700037466946154801F0A9F808B100F0D8FFDC
:10098000124801F01DFA124D040006D00F4801F084
:100990004FF9204340F080700BE00A210B4801F032
:1009A000B9F90400094806D001F042F9204340F0AB
:1009B0000070286003E001F03DF986B22F60034823
:1009C00001F07CFA04B03046BDE8F0818C0C0020C8
:1009D00000000020464910B54A6822F440324A60BF
:1009E0004A6843681A434A6001684A6822F4807280
:1009F0004A6001684A68036942EA03224A60016862
:100A00004A6822F040724A6001684A6883681A4363
:100A10004A6001688A6822F400628A6001688A6814
:100A2000C3681A438A60816A6FF07062D1420168BC
:100A30008A6822F070628A6001688A680CD0836AD2
:100A40001A438A6001688A6822F040528A6001680D
:100A50008A68C36A1A4301E022F040528A60016842
:100A60008A6822F002028A6001688A68037E42EA8C
:100A700043028A6090F82010002901684A680FD06C
:100A800042F400624A6001684A6822F460424A60A7
:100A900001684A68174C436A04EB43331A4301E088
:100AA00022F400624A600168CA6A22F47002CA62D3
:100AB0000168CA6A838B104C04EB03531A43CA6261
:100AC00001688A6822F400728A6001688A6890F876
:100AD000303042EA43228A6001688A6822F48062E8
:100AE0008A6001688A68406942EA8020886010BD97
:100AF0000023014000E0FFFF0000F0FF11B1401AA9
:100B0000904201D3012070470020704700F010B8D8
:100B100070B50C4605460968FFF7F0FF002805D0C0
:100B20002560BDE87040022000F040B970BD0000B3
:100B300005480021016041608160C160016141613F
:100B40000176417670470000A807002070B50500C7
:100B500024D001F03DFC6979114A044689B1297914
:100B600079B1116801B91060116840F2EE22411AA2
:100B7000914209D30A494FF4FA620831FFF7C8FFDE
:100B800002E00020106090602146284600F062F8E4
:100B900021462846BDE8704000F004B870BD000052
:100BA000A80700202DE9F0410E4690F83010244DA2
:100BB00004460027A9B328460629407E29D00729E4
:100BC00030D0012068761F49606B88420BDD4FF4FE
:100BD0007A7255F8141F3046FFF790FF18B10320C2
:100BE0002E6000F0E3F894F83000042825D116496F
:100BF000A06B164C4318124940F2DC521031A3424C
:100C000002D3134B984218DD3046BDE8F041FFF7A0
:100C10007FBF94F8451000290FD000280DD0012087
:100C200003E009E0002808D0022000F0BFF86F764A
:100C300094F83000002800D16F76BDE8F081000004
:100C4000A807002000005243323333C2323333024C
:100C50000000604070B50B46024690F82B10234C04
:100C600001200025B9B1207692F82C0008B165600A
:100C700070BD606800B96360606840F2DC51181AAA
:100C80008842F5D3BDE8704018494FF4FA620C3140
:100C90001846FFF73DBF6560207E10B392F82D0027
:100CA000F8B11349506A134B0144994204D3118C93
:100CB00021B12839652901D3012100E000210E4B23
:100CC0001844B0F5002F04D3108C20B132384728D7
:100CD00001D309B907E009B1032000E0012000F0C9
:100CE00065F8257670BD0220F9E70000A80700200E
:100CF000323333C23233E70400004CBD10B5064C2A
:100D0000606828B9054A0421082017F025FA6060B8
:100D10000020207010BD000038000020C0AA01088B
:100D200008B5002000F096F80C4C4FF0FF356068D5
:100D300080B12B460022694617F0DCF90028F6D175
:100D400020780028F3D1BDF802109DF8000000F0D3
:100D50004FF8ECE7642017F081F9E8E7380000204D
:100D6000094A08B50146506800280CD01278002ABC
:100D700009D104228DF80020ADF8021000231A4694
:100D8000694617F015FA08BD3800002010B50400B8
:100D90000AD0012000F05EF8204617F05FF9BDE8A8
:100DA0001040002000F056B810BD000038B50F49C3
:100DB0004C68002C12D0097800290FD18DF8000062
:100DC000ADF8021001280ED002280AD0032806D060
:100DD000002200236946204617F0EAF938BD0322B5
:100DE000F7E70222F5E70122F3E7000038000020D0
:100DF00010B570B101280ED0022814D003281AD0E3
:100E00004FEA0100FFF7C2FFBDE81040002000F0EC
:100E100021B83C20F6E75020FFF7B8FF502017F02C
:100E20001DF95020EEE75A20FFF7B0FF5A2017F0C7
:100E300015F95A20E6E78C20FFF7A8FF502017F09D
:100E40000DF98C20FFF7A2FF502017F007F98C2036
:100E5000D8E7000008B550B15FF000008DF8000041
:100E6000322301226946402000F01CF808BD012011
:100E7000F4E7000010B5044617F0FEF8022801D090
:100E800001280BD100F0A6F805480068002804D01E
:100E9000214617F0C1F908B1002010BD012010BD96
:100EA00030000020F8B5074615460E461C46184689
:100EB000FFF7E0FF58B12B4632463946054800940B
:100EC00001F088FC044600F007F82046F8BD022037
:100ED000F8BD0000480D002010B517F0CDF802282D
:100EE00001D0012807D104480068002803D0BDE8DC
:100EF000104017F0EEB910BD3000002010B50446C8
:100F000017F0BAF8022801D001280BD100F062F8DE
:100F100005484068002804D0214617F07DF908B143
:100F2000002010BD012010BD30000020F8B507469C
:100F300015460E461C461846FFF7E0FF58B12B46F3
:100F4000324639460548009401F044FC044600F05E
:100F50002FF82046F8BD0220F8BD00009C0D0020AF
:100F60002DE9FF4182B006460C9D1F46904628465B
:100F7000FFF7C4FF48B1012303AA31460B4800958F
:100F800001F028FC040004D00CE0022006B0BDE80B
:100F9000F08146F001013B4642460448009501F0CD
:100FA00021FB044600F004F82046EFE79C0D0020EA
:100FB00010B517F061F8022801D0012807D10448C4
:100FC0004068002803D0BDE8104017F082B910BD7A
:100FD0003000002010B5084C206818B9074817F0F9
:100FE00044F920606068002804D10448103017F0EC
:100FF0003CF9606010BD000030000020A0AA01088C
:101000000FB410B5094C206818B14FF0FF3117F03C
:1010100003F903A9029815F067FD2068002801D0A4
:1010200017F057F910BC5DF814FB000040000020D9
:10103000B5EEC00AF1EE10FA01D2B1EE400A7047E7
:101040001549B1F8C424602A25D20B6C1BB1C31A10
:10105000B3F5AF7F1FD310EE903AB3F17C5F1ADB8C
:1010600002EB420201EB820282ED110AB1F8C424C4
:1010700002EB420201EB8202C2ED120AB1F8C42473
:1010800002EB420201EB8202D064B1F8C424521C8C
:10109000A1F8C42408647047C407002070B5002676
:1010A0002DED028B9FED588A584CB4F8C4040828E3
:1010B00001D257A11AE0002510E000BF05EB450161
:1010C00004EB810191ED120AB4EEC80AF1EE10FAB8
:1010D00002DDB0EE408A2E466D1CADB2A842EDD8BE
:1010E000B5EEC08AF1EE10FA07D84BA1BDEC028B29
:1010F0000720BDE8704000F03DBB06EB460004EB66
:101100008000F6EE008A90ED110A4FF0FF3184ED79
:10111000040A28EE280A304600F09AF884ED050A01
:101120009FED3F0A0121304628EE000A00F090F8BA
:1011300084ED060AB4F8C404E16C00EB400204EB51
:101140008202136C00228B421AD9591A00EE901AAF
:10115000DFED341A411EB8EE601AC1EE210A01EE2D
:10116000101AB8EE411AC1EE201A71EEA80AFCEE70
:10117000E00A10EE901AC9B22177282901D304E0C1
:101180002277082801D3282103E0207FB42801D941
:10119000B4212177D4ED050AF4EEC00AF1EE10FA7D
:1011A00025DD10EE901A2048814220DD10EE901AC5
:1011B0001E4B204699421ADA10EE101A1C4B994227
:1011C00015DD10EE101A1B4B994210DA1A4B01690B
:1011D00099420CDD194B994209DA017F282906D37F
:1011E000B42904D80121617715A1062002E06277B5
:1011F00015A1072000F0BEFABDEC028B0020BDE86F
:10120000704003F0C9BC000000000000C4070020CB
:10121000706F696E747300006E6F5F616D700000B7
:10122000CDCC4C3F00606A470000204200005C4388
:101230000000A04100000C430000C84100003443FE
:1012400063616C635F6F6B0072616E6765000000C5
:101250002DE9F04105B2224C00EB40002DED048B4E
:1012600004EB8000F0EE408A90ED120A0E4690EDFD
:10127000118A30EE680AFFF7DBFEB0EE409A25E0F7
:1012800005EB450004EB800797ED120A30EE680A83
:10129000FFF7CEFEB4EEC90AF1EE10FA03D297EDD5
:1012A000118AB0EE409A97ED120AB4EEE80AF1EE18
:1012B00010FA09D805EB450004EB800090ED110A07
:1012C000BDEC048BBDE8F081A81905B2002D03DB4D
:1012D000B4F9C404A842D3DCB0EE480AF0E7000039
:1012E000C4070020074846219FED070A418480ED8E
:1012F0000A0A40F26D119FED050A818480ED0B0A08
:1013000070470000C4070020000000000000F04209
:1013100010B5444C444AD4ED020A10EE901A9142A2
:1013200002DC84ED020A0BE09FED401A60EE810AB8
:101330009FED3F1A40EE010AC4ED020AB0EE600ACA
:1013400084ED010A616B411AB1F5FA7F12D300EE08
:10135000901ADFED381AB8EE601AC1EE210A94ED4A
:101360000C1A31EE401AC1EE201AC4ED031A84EDB6
:101370000C0A60632178012913D0022922D00329A5
:101380003BD004294DD100F03DFA2B4960688842DA
:1013900047DC2AA1052000F0EDF9BDE81040FFF779
:1013A0007DBED4ED0C0A10EE100A284970EE600ADA
:1013B000884204DC10EE900AB0F17E5F31DD24A19A
:1013C000022008E010EE100A25490844B0F5202F4D
:1013D00005D824A10320BDE8104000F0CBB910EEE1
:1013E000100A224988421CDD21A1072000F0C2F921
:1013F000BDE81040002003F0CFBBE068B0F17C5F97
:101400000FDD1EA1042000F0B5F90020A4F8C404EB
:1014100094ED010A84ED0E0A9FED1C0A84ED0F0A7B
:10142000206410BDC4070020CDCCCC3D9A99593F13
:101430009A99193E00007A440000204273746F703C
:101440005F70726573737572650000000000A041E3
:1014500070726573737572655F7269736500000001
:101460000000CCBC746172676574000000005743D3
:101470006F7665725F707265737300006465666C89
:101480006174655F73746172740000000000000095
:101490001C498A8C91ED0A1A00EE102A4A8CF8EE4B
:1014A000400A00EE102AB8EE400A30EEC00AD1ED34
:1014B0000B0A10EE101A70EEC10A11F1814F08D21A
:1014C00010EE101AB1F17E5F03DA9FED0F0ADFED27
:1014D0000F0A01EE902AB8EE612A01EE900AF8EEAA
:1014E000611A71EEC21A61EEA00AC0EE801A31EEE6
:1014F000810AB5EEC00AF1EE10FA01D29FED040A9E
:1015000070470000C407002000F07F450000C8427B
:1015100000000000014890ED060A7047C407002053
:10152000054890ED030AB5EEC00AF1EE10FA01DCB1
:101530009FED020A70470000C40700200000000071
:101540000148007F70470000C4070020124801785E
:1015500007291ED2DFE801F00406080A0C191B0057
:101560000EA0704710A0704714A0704717A07047D6
:10157000C068B0F1804F01DA1DA070472049884251
:1015800001DD20A0704723A0704725A0704727A049
:10159000704728A070470000C40700205072657390
:1015A0007320535441525400496E666C6174652037
:1015B0006D616E75616C6C79000000004B65657043
:1015C00020696E666C6174696E67000053746F7099
:1015D00020696E666C6174696E6720616E64206458
:1015E00065666C61746520736C6F776C79000000C0
:1015F0004465666C61746520666173746572000091
:10160000000060404465666C61746520736C6F77A0
:1016100065720000476F6F64207370656564000039
:1016200043616C63756C6174696E6700446F6E65CD
:10163000000000004D656173757265206661696C1C
:1016400065640000014890ED010A7047C40700205E
:10165000014890ED050A7047C40700200148007852
:1016600070470000C40700200148007800F088B8E7
:10167000C407002010B500F00BF8BDE81040FFF7DC
:1016800031BE00000148407F70470000C4070020C1
:101690002DE9F041154C2DED028B207808B1012782
:1016A00000E00027668CA58C94ED0A8AD4ED0B8AA5
:1016B0004FF499610D48FEF745FE002020706684C6
:1016C000A58484ED0A8AC4ED0B8AAE4201D1FFF7EE
:1016D00009FE002F06D0BDEC028B0020BDE8F041D2
:1016E00003F05ABABDEC028BBDE8F081C4070020BC
:1016F00010B5FFF7CDFF012003F04EFA06A101203F
:1017000000F038F800F064FE0549486391ED010AE5
:1017100081ED0C0A10BD000073746172740000004A
:10172000C407002030B58DB000F052FE104C0546C5
:101730002178002919D0062917D0072915D0684625
:1017400003F0B6F994F8200020B1BDF80600E18B53
:1017500088420AD0BDF80600E083012184F82010F9
:10176000FFF796FE2846FFF7D3FD0DB030BD000011
:10177000C40700200149087070470000C40700201A
:10178000072813D2DFE800F00406080A0C0E100048
:1017900007A0704708A070470BA070470DA07047C6
:1017A00010A0704712A0704713A0704714A0704794
:1017B00049444C4500000000574149545F494E469A
:1017C0004C41544500000000494E464C4154494E9E
:1017D0004700000052454144595F4445464C41543E
:1017E000450000004445464C4154494E4700000026
:1017F00043414C4300000000444F4E4500000000B0
:101800004552520070B5174CDFED170A05462DED15
:10181000028BF0EE408A94ED0E0A20EE200ADFEDF6
:10182000130A08EEA00A84ED0E0A38EEC00AFFF78C
:10183000FFFBD4ED0F0AB0EE408AF4EEC80AF1EED9
:1018400010FA09DD10EE901AB1F17C5F04DD284634
:10185000B0EE680AFFF7F4FB84ED0F8ABDEC028B53
:1018600070BD0000C407002048E17A3F0AD7A33CBE
:10187000FEE70000254A10B4136823F0010313604B
:10188000234A1368C3F30B1C0123ACF54064243CCA
:1018900007D01268C2F30B12A2F5406CBCF1270C02
:1018A0001AD11C4A1268BAB91B4AD2F800C0CCF34C
:1018B0000B0CBCF58A6F19D0D2F800C0CCF30B0C1E
:1018C000ACF58064833C11D01268C2F30B02A2F520
:1018D000806CBCF1850C09D0104A93609368002B92
:1018E000FCD11060106888420DD009E00C4A1360EA
:1018F0001368002BFCD10B4A10601068884202D09C
:1019000010BC0020704710BC01207047002000E090
:1019100000ED00E0002004E00010005C0030024018
:10192000084C0258004C02587047082000F018BCC0
:1019300008B572B60026084C084D0221204600F07A
:101940003AFD0121204600F036FD00960098401C2B
:101950000090A842FAD3F0E70004024080841E0001
:10196000F0B5D1E907354C6A0A68C2B102682B4369
:1019700022F4F842144323430360D1E901231A43BC
:10198000D1E9033423431A434B6989691A430A4353
:1019900041686FF30E010A4342600020F0BDD1E9B7
:1019A00001263243D1E903673E4332434E698969D8
:1019B00032430A431A432A43016822436FF30E015C
:1019C0000A430260E9E7426943F6FE739A4342EA3A
:1019D000410141610020704770B514460546D1E9C8
:1019E000000210438A686FF01F03C96803EB4212BC
:1019F00042EA4121084329696FF315010843286130
:101A000000F0E6FC064609E0601C07D024B100F0B7
:101A1000DFFC801BA04201D9032070BDA8698006AD
:101A2000F2D4002070BD0000F0B56FF00F058C8A75
:101A30002E014FEA054ECB682F034FF07F4C0EEB83
:101A400004540AB31A03A2F58052836822431D4C42
:101A500023401A438260D1E9002305EB0313521E91
:101A60001A438B6806EB03231A430B8A097E07EBA4
:101A700003431A430CEB01610A43C16801F0704152
:101A80000A43C2600020F0BDD1E9002E05EB0E151F
:101A9000521E2A438D6806EB05252A430A4D05EBA5
:101AA00003331A430B8A097E07EB03431A4322438D
:101AB0000CEB01610A43816801F070410A438260C6
:101AC000E0E70000FF0F0FFF00F0FFFF78B50024F4
:101AD000009490F83C20012A19D0012280F83C2083
:101AE0000A6807230568092A13D9EE680A3A02EB47
:101AF000420293409E43EE600B788A680A3B03EBF8
:101B000043039A400368DD682A43DA6010E002204C
:101B100078BD2E6902EB420293409E432E610B7802
:101B20008A6803EB43039A4003681D692A431A61DC
:101B30004A681F23072A13D205686E6B521E02EBF8
:101B4000820293409E436E630A8893B20A79521EC2
:101B500002EB820293400268556B2B43536327E0EC
:101B600005680D2A12D22E6BD21F02EB820293401F
:101B70009E432E630B790A88DB1F92B203EB83032B
:101B80009A4003681D6B2A431A6311E0EE6A0D3A0E
:101B900002EB820293409E43EE620B790A880D3B72
:101BA00092B203EB83039A400368DD6A2A43DA6248
:101BB0001B4B0568194A9D420AD10D68122D07D1A9
:101BC000556825F400055560556845F48005556055
:101BD00005689D421DD1134D0B68AB4201D0112BFE
:101BE00017D1536823F480035360536843F4000310
:101BF00053600968A9420CD10B490C4A0968B1FB32
:101C0000F2F101EB8101490000E0491E0091002939
:101C1000FBD180F83C40002078BD0000002301404B
:101C200000200140120000107400002040420F000C
:101C3000406C70470068C06C704770B504004FF08E
:101C4000000503D0206C002610B107E0012070BD14
:101C5000204600F01DF8666484F83C60206CC006E5
:101C600010D4206C20F4885040F0020020642046FC
:101C7000FEF7B0FE6664206C20F0020040F0010028
:101C8000206400E0012584F83C60284670BD000017
:101C900030B587B0044614216846FEF753FB194956
:101CA000206888422CD118480024016841F48071D2
:101CB0000160006800F480700590134814380168D2
:101CC00041F004010160016801F00401059101681F
:101CD00041F0010101600068032500F0010005905A
:101CE0000220CDE9000569460294084800F044FA54
:101CF0002020CDE9000569460294054800F03CFA31
:101D000007B030BD002001404438024000080240C6
:101D1000000002402DE9F041044600680D4681684C
:101D20004FF0000749050BD58068C00508D5206C29
:101D300040F02000206484F83C700120BDE8F08170
:101D400000F046FB064613E0681C11D025B100F0F8
:101D50003FFB801BA8420BD920680068800707D48E
:101D6000206C40F00400206484F83C700320E5E718
:101D7000206800688007E7D521686FF012000860CE
:101D8000206C40F4007020642068816811F0405F8E
:101D900013D1217E89B9C16A11F4700F02D0806815
:101DA00040050AD4206C20F480702064206CC004AC
:101DB00003D4206C40F0010020640020BEE7000046
:101DC00018B50021009190F83C20012A07D001228B
:101DD00080F83C2002689368DB0702D011E0022003
:101DE00018BD936843F0010393602E4A2E4B12688E
:101DF000B2FBF3F202EB420200E0521E0092002A14
:101E0000FBD102689368DB0742D0036C40F20164A7
:101E1000A34343F48073036453685B0505D5036CE7
:101E200023F4005343F480530364036CDB0404D5B0
:101E3000436C23F00603436400E0416480F83C10E7
:101E40001A496FF02203136049680068CA061849EE
:101E500006D0884224D1816811F0405F13D01FE082
:101E60008842F8D0134A904203D1D1F80423D20615
:101E7000F1D0114A904213D1D1F8041301F01F019F
:101E80001029E8D30CE0816841F08041816007E0CF
:101E9000016C41F010010164416C41F001014164A9
:101EA000002018BD7400002040420F0000230140B4
:101EB00000200140002101400022014090F83C1028
:101EC00001290CD0012180F83C1001688A6822F0B9
:101ED00001028A6001688968C90702D007E0022010
:101EE0007047016C21F4885141F001010164002127
:101EF00080F83C100846704710B5040002D06079A5
:101F000010B106E0012010BD00202071204600F035
:101F100005F801206071002010BD000008B50068C0
:101F20000649884208D10648016841F480510160A1
:101F3000006800F48050009008BD000000300240AE
:101F40003038024070B590F83820012A24D001269C
:101F500080F83860022280F8392000EB0112148CDE
:101F6000D369183243EA04451E4C0A2B16D0092BBC
:101F700014D0137B45EA03630029016813D0CD69AF
:101F8000A5431D43CD6103681168196151680A2991
:101F90001BD0092919D01DE0022070BDD36803F0C1
:101FA0007F432B43E8E74D6AA5431D434D62036819
:101FB0001168996151680A2901D009290AD1D168AB
:101FC000026821F07F41916204E0D168026821F04B
:101FD0007F41116280F83960002180F8381008468E
:101FE00070BD00000F0003FF70B5040004D094F82A
:101FF0003900002510B106E0012070BD84F838508A
:10200000204600F01FF8022084F83900206801689B
:10201000626821F44031114301602068416BA2687D
:1020200021F00701114341632068016CE2686FF3FE
:102030000D0111430164E563012084F8390000209B
:1020400070BD000008B500680649884208D10648FE
:10205000016841F400010160006800F40000009094
:1020600008BD000000B002403038024070B50446A0
:1020700000F0AEF90546601C02D004480078044424
:1020800000F0A6F9401BA042FAD370BD6800002002
:10209000F0B587B014216846FEF754F92548016869
:1020A000002944D10121016023480024016841F046
:1020B000010101600068022500F0010005904FF663
:1020C0003F00CDE9000502AA03260C2782E8D000D4
:1020D00069461A4800F050F80D20CDE9000502AA23
:1020E000694682E8D000164800F046F848F23710FA
:1020F000CDE9000502AA694682E8D000114800F047
:102100003BF84FF68370CDE9000502AA694682E8E4
:10211000D0000D4800F030F84CF20370CDE9000516
:1021200002AA694682E8D000084800F025F807B006
:10213000F0BD00006000002038380240001402406A
:10214000000802400018024000100240000C02404B
:10215000082802D10149012008707047780000204A
:10216000044910B50A68024202D00860FFF7F0FF88
:1021700010BD0000143C01402DE9F84FDFF8F8A134
:102180000022012403254FF00F090AF1040BAAF1E4
:10219000040E00BF0B6804FA02F63340B34270D15C
:1021A0000F7907F00307012F01D0022F16D187689E
:1021B0004FEA420805FA08FC27EA0C07D1F80CC0E0
:1021C0000CFA08FC4CEA070CC0F808C04768B74393
:1021D0000E79C6F3001696403E4346600E79F643EC
:1021E000B6070AD0C7684FEA420C05FA0CF6B743A7
:1021F0008E6806FA0CF63E43C6600E7906F00306BA
:10220000022E10D1D60800EB8608D8F820605707B8
:102210004FEAD76C09FA0CF7BE430F6907FA0CF7BF
:102220003743C8F8207006684FEA420C05FA0CF7ED
:10223000BE430F7907F0030707FA0CF7374307602F
:102240004E6816F4403F1CD04C4E376847F4804728
:102250003760366822F0030706F480460096484E41
:1022600007EB060CDCF8086897073F0F09FA07F838
:1022700026EA0806DFF80C81404503D14FF000083C
:1022800041E072E0DFF80081404502D14FF00108E3
:1022900039E0DFF8F880404502D14FF0020832E023
:1022A000DFF8EC80404502D14FF003082BE0DFF867
:1022B000E480404502D14FF0040824E0DFF8D880E4
:1022C000404502D14FF005081DE0DFF8D0804045C1
:1022D00002D14FF0060816E0DFF8C480404502D175
:1022E0004FF007080FE0DFF8BC80404502D14FF007
:1022F000080808E0DFF8B080404502D14FF0090837
:1023000001E04FF00A0808FA07F848EA0608CCF896
:102310000888DAF800605746D1F804C09E435FEAA7
:10232000CC2C00D51E433E60DBF800605F46D1F840
:1023300004C09E435FEA8C2C00D51E433E60DEF84D
:1023400000607746D1F804C09E435FEA8C3C00D51C
:102350001E433E60084F083F3E68D1F804C09E43CC
:102360005FEACC3C00D51E433E60521C102AFFF4AD
:1023700011AFBDE8F88F0000083C0140443802402E
:10238000003001400000024000040240000802400A
:10239000000C0240001002400014024000180240ED
:1023A000001C024000200240002402400069084056
:1023B00000D001207047426921EA02030A4043EA43
:1023C0000241816170470AB1816170470904FBE7EE
:1023D00001488068704700006800002090F83D20A8
:1023E000202A01D002207047242280F83D20026874
:1023F000136823F0010313600268536A23F010038B
:1024000053620268536A0B43536201680A6842F0E0
:1024100001020A60202180F83D100020704790F8EA
:102420003D20202A01D002207047242280F83D2040
:102430000268136823F00103136003685A6A22F0EC
:102440000F020A4391B2596201680A6842F0010220
:102450000A60202180F83D100020704770B504000C
:1024600025D094F83D00002520B984F83C50204642
:1024700000F046FA242084F83D002068016821F02D
:10248000010101602068016841F400410160206899
:10249000016821F40041016000F0F2FE4D4A6168DC
:1024A000914201D84C4900E04C49884201D20120B8
:1024B00070BD4B492368B0FBF1F15E6826F03F0622
:1024C0000E435E606368934206D94FF49673594396
:1024D0004FF47A73B1FBF3F12368491C1E6A26F0AE
:1024E0003F06314319626168914210D84900401E8D
:1024F000B0FBF1F2521CC2F30B02042A01D20420F9
:1025000022E0B0FBF1F0401CC0F30B001CE0A2681D
:10251000F2B301EBC10303EB0116431EB3FBF6F369
:102520005B1C43F480431B0549D092B301EBC1020D
:1025300002EB0111401EB0FBF1F0401CC0F30B0098
:1025400040F4804040F400402168CA694CF6FF73B3
:102550009A431043C861D4E9071001432068026818
:1025600022F0C00211430160D4E903010143206855
:10257000826848F2FF339A4311438160D4E9050130
:1025800008432168CA6822F0FF021043C86001E0D6
:102590000EE016E02068016841F001010160256449
:1025A000202084F83D00256384F83E50002070BD53
:1025B00001EB4106431EB3FBF6F35B1CB3E70120BE
:1025C000C2E701EB4101401EB0FBF1F0401CC0F33B
:1025D0000B00B7E7A086010080841E0000093D00C3
:1025E00040420F002DE9F84F1F4690468A460446A8
:1025F000DDF82890FFF7ECFE054694F83D00202812
:1026000071D11923012270492046009501F03AFC4E
:102610000028F5D194F83C00012864D0012084F80A
:102620003C0020680168C90703D1016841F001013D
:1026300001602068016821F400610160222084F8B3
:102640003D00102084F83E0000262664C4F8248053
:102650006785608D20855D48E0622B464A4651467D
:10266000204601F01FFB002876D1208D584F68B11D
:10267000012814D002282068016816D041F4806136
:10268000016020684169806900908EE0206841699E
:1026900081690091016841F40071016085E0206862
:1026A000016821F480610160F0E721F4806101603C
:1026B0002068016841F40061E2E7032846D8012858
:1026C0000AD0022810D04B460022394620460095F9
:1026D00001F0D8FBC8BB25E02A464946204601F058
:1026E00077FC90BB54E06CE04B4600223946204614
:1026F000009501F0C7FB40BB2068016841F4007100
:10270000016020680069616A0870606A401C60624C
:10271000218D491E2185618D491E618521680969C8
:10272000017039E02068016821F48061016020684F
:102730000069616A0870606A401C6062208D401EFA
:102740002085608D401E6085CEE705E02A4649461B
:10275000204601F03DFC10B10120BDE8F88F206853
:102760000069616A0870606A401C6062208D401ECA
:1027700081B22185608D401E608520684269D24308
:10278000520712D4032903D1016821F4806101604A
:1027900020680069616A0870606A401C6062208D70
:1027A000401E2085608D401E6085208D002884D1CC
:1027B000202084F83D0084F83E6084F83C600020CE
:1027C000CBE70220C9E70000020010000000FFFF75
:1027D000040001002DE9F84F1F4690468A46044642
:1027E000DDF82890FFF7F4FD054694F83D00202819
:1027F0007FD11923012240492046009501F042FB78
:10280000002876D194F83C00012872D0012084F889
:102810003C0020680168C90703D1016841F001014B
:1028200001602068016821F400610160212084F8C2
:102830003D00102084F83E0000262664C4F8248061
:102840006785608D20852D48E0622B464A465146BB
:10285000204601F09DFA90B9206841698069009096
:1028600036E02A464946204601F0EAFB50B1206C8A
:10287000042804D12068016841F40071016001203E
:10288000BDE8F88F606A216800780861606A401CC2
:102890006062618D491E6185218D491E89B2218545
:1028A00022685369DB435B070BD451B10078106198
:1028B000606A401C6062608D401E6085208D401EF5
:1028C00020852A464946204601F0B0FA0028CED19C
:1028D000208D0028C5D154F83D0B016841F40071EA
:1028E0000160202004F81E09E67766770020C7E71C
:1028F000FFE70220C4E70000020010000000FFFF15
:102900002DE9F04387B0044614216846FDF71AFD0F
:102910002F4B2268DFF8BC9000242E491225032695
:1029200004272D4809F110099A421BD10A6842F088
:1029300080020A60096802AA01F080010591302135
:10294000CDE9001582E8D0006946FFF715FCD9F8FB
:10295000001041F48001C9F80010D9F8000000F41B
:10296000800030E01D4B9A422ED10A6842F080026E
:102970000A600A6802F0800205920A6842F00102C9
:102980000A6009684FF4807801F00101CDF80080F9
:10299000CDE904710396CDE901546946FFF7ECFBDC
:1029A00002AA694682E8D000CDE900850C48FFF70D
:1029B000E3FBD9F8001041F40001C9F80010D9F880
:1029C000000000F40000059007B0BDE8F0830000AF
:1029D0000058004030380240001C0240005C0040BB
:1029E000000002400248816802781144816070470B
:1029F000680000200B4810B5016841F400710160C7
:102A0000016841F480610160016841F480710160F6
:102A1000032000F007FA0F2000F006F800F0B8F9E4
:102A2000002010BD003C024030B505461F4887B06D
:102A30000024016841F020010160006806A900F04F
:102A40002000009001A800F0FBFB0498A8B100F062
:102A500017FC40001649174AB0FBF1F11648491E11
:102A6000026040F2E732C0E90324C0E90114846146
:102A700000F0B0FE040003D015E000F001FCE9E72F
:102A80000D4800F0E9FE04000DD1372000F09CF95C
:102A9000102D07D200222946372000F0A3F907485D
:102AA000056000E0012407B0204630BD40380240F8
:102AB00040420F0000140040280F00206C0000204E
:102AC0002DE9F041044690F8A00016460F46012873
:102AD0001DD0012584F8A050022084F8A10006EB47
:102AE000860000EBC60004EB800034223830FDF78E
:102AF00010FC32463946204601F0B0FB20684562A2
:102B000084F8A150002084F8A000BDE8F0810220E4
:102B1000FBE770B5040004D094F8A100002510B1C3
:102B200006E0012070BD84F8A050204600F050F867
:102B3000022084F8A1002068816921F07041816140
:102B4000D4E901010843D4E9031211430843216881
:102B50008A6910438861A08AA16941EA004120681E
:102B60008160A08B216A41EA00412068C160A08C8D
:102B7000A16A41EA004120680161A08D216B41EA10
:102B800000412068416194F835002168030294F8FF
:102B90003600CA6A02F07F42CA622168CA6A94F8A3
:102BA000346043EA004032430243CA622068416B0A
:102BB00041F0060141632068816941F001018161B2
:102BC000C4F8A450012084F8A100002070BD0000CA
:102BD0002DE9F04192B0044614216846FDF7B2FB9E
:102BE000302105A8FDF7AEFB6049206888427DD101
:102BF00008200590002454200E94022509900B957E
:102C000005A800F059F908B1FEF792FE584801688E
:102C100041F080610160006800F0806011905448CC
:102C20001438016841F480710160016801F4807119
:102C30001191016841F020010160016801F020015B
:102C40001191016841F001010160016801F0010189
:102C50001191016841F002010160016801F0020177
:102C60001191016841F080010160016801F080016B
:102C70001191016841F040010160016801F04001DB
:102C80001191016841F00401016000680E2600F016
:102C90000400119040F204600090CDE90154CDE9A8
:102CA000034669463348FFF767FA4FF480600090A7
:102CB000CDE90154CDE9034669462F48FFF75CFA98
:102CC00048200090CDE90154CDE9034669462B48E0
:102CD000FFF752FA03200090CDE901540927DFF8ED
:102CE000A080CDE903476946404600E03BE0FFF79E
:102CF00043FA4FF470600090CDE90154CDE90346EA
:102D000069464046FFF738FA4FF498400090CDE905
:102D10000154CDE9034669461A48FFF72DFA4FF4EE
:102D20000C600090CDE90154DFF85C80CDE90346EA
:102D300069464046FFF720FA80200090CDE9015413
:102D4000CDE9034669461148FFF716FA4FF4805063
:102D50000090CDE90154CDE9034769464046FFF7AD
:102D60000BFA01F0EBF912B0BDE8F0810068014008
:102D7000443802400020024000140240000002409B
:102D800000040240001C02400018024000080240FB
:102D90000C4882B0016841F480410160006800F491
:102DA000804000900748001F016841F08051016099
:102DB0000068002200F0805000900F21901E02B0A9
:102DC00000F010B844380240002809DB00F01F0270
:102DD000012191404009800000F1E020C0F800117D
:102DE00070470000F0B40E4B1B680C46C3F302237F
:102DF000C3F10705042D00D90425191D072901D2A7
:102E0000002300E0DB1E012606FA05F1491E2140E1
:102E100099409E40761E16403143F0BC13F071BEBF
:102E20000CED00E0064900F0070208684FF6FF03CA
:102E3000184040EA0220034A10430860704700002F
:102E40000CED00E00000FA052DE9F8431748016891
:102E500041F0805101600068154F00F0805001265C
:102E600000903E64FFF7B4FA05464FF47A78114CAF
:102E700005E000BFFFF7ACFA401B40450DD8606885
:102E8000C003F7D57E64FFF7A3FA0546464607E080
:102E9000FFF79EFA401BB04202D90320BDE8F88339
:102EA00060688003F4D50020F8E700004038024055
:102EB00000000E42007000402DE9F84F0446006803
:102EC000DFF824A2894F8A4DC1074FF001084FF067
:102ED000000603D1810701D4400648D5CAF86860CE
:102EE000FFF776FA814605E0FFF772FAA0EB0900DA
:102EF00002287DD828680001F6D42078C1077D48D3
:102F000005D06168227A890141EA02710160217865
:102F1000890711D501686268237B9201C1F30271B0
:102F200042EA036242EA017101603968E26921F014
:102F30001F01521E114339602178490608D5616886
:102F4000227B890141EA0261227A41EA0271016031
:102F5000CAF86880FFF73CFA814605E0FFF738FAC7
:102F6000A0EB0900022843D828680001F6D52068A4
:102F7000410701D400074ED5CAF87060FFF728FA60
:102F8000814605E0FFF724FAA0EB090002282FD8BC
:102F90002868C0438000F5D520784107564814D5ED
:102FA00001682269237D9201C1F3027142EA036242
:102FB00042EA017101603968226A6FF0FF0321F46F
:102FC000F85103EB0222114339602178090712D529
:102FD00001682269C1F30361920142EA0161227E24
:102FE00041EA027101603868616A20F4403000E013
:102FF00051E008433860CAF87080FFF7E9F90746E6
:1030000005E000BFFFF7E4F9C01B022843D8286899
:10301000C0438000F6D42078800653D53448403031
:10302000016841F0805101600068344D00F080502B
:103030000090286840F480702860FFF7C9F90746BF
:1030400005E000BFFFF7C4F9C01B022823D8286899
:10305000C005F7D5274D143D286810F4407020D0E6
:10306000218D01F4407181421BD0286820F4407109
:103070002348C0F80080066029602868C00710D087
:10308000FFF7A6F9064641F2883707E0FFF7A0F9F7
:10309000801BB84202D90320BDE8F88F286880075A
:1030A000F4D5A16A1248C1F301220830032A13D0D3
:1030B000016821F4F81101602868218DC1F30B012A
:1030C000084328602078C00604D50E4994F82C00E7
:1030D000C1F8E0010020DFE702680B4B22F4F81290
:1030E00019400A430260E7E7000047428C3802407B
:1030F00000380240843802408838024000700040A6
:10310000400E474200104742FFFCFF0F2DE9F047F9
:103110000E46050065D0DFF81481D8F80000F7B23C
:1031200000F00F00B04207D288F80070D8F8000015
:1031300000F00F00B04254D128683D4C810712D5F1
:10314000400703D5206840F4E0502060287800074D
:1031500003D5206840F4604020602068A96820F012
:10316000F000084320602878C0072DD030496868F7
:103170000839012812D0022813D0032811D0096879
:10318000890700292DDA216821F00301014321601C
:10319000FFF71EF9814641F2883A0EE0096889037B
:1031A000EFE709688901ECE7FFF712F9A0EB0901E5
:1031B000514502D90320BDE8F0872068696800F016
:1031C0000C00B0EB810FEFD1D8F80010404601F0B1
:1031D0000F01B14207D90770006800F00F00B0423C
:1031E00001D00120E7E72878400705D52068E96885
:1031F00020F4E050084320602878000706D52068B6
:10320000296920F4604040EAC100206000F058F8CD
:103210002168084AC1F30311515CC840064908609F
:1032200006480068FFF700FC0020C4E7003C0240AD
:10323000083802409CAB0108740000206C0000209C
:103240000F2202600C4A136803F003034360136803
:1032500003F0F0038360136803F4E053C360126863
:103260004FF4E05303EAD20202610448006800F020
:103270000F0008607047000008380240003C024020
:103280000448054900680968044AC1F38221515C79
:10329000C84070477400002008380240ACAB0108F9
:1032A0000448054900680968044AC1F34231515C89
:1032B000C84070477400002008380240ACAB0108D9
:1032C000154810B5006810F00C02144813D01449CA
:1032D000042A0FD0082A0ED10F4C241F226823681D
:1032E00002F03F025B0207D52068C0F38810A0FB04
:1032F000010106E0084610BD2168C1F38811A1FB59
:1033000000010023FCF7D4FF2168C1F30141491CEF
:103310004900B0FBF1F010BD083802400024F40071
:1033200040787D012DE9F84F04006ED02078DFF859
:103330004C93C007A9F104054AD009F104000168C3
:10334000C1F38101012908D00068C0F3810002287F
:103350000AD1D9F80000400206D52868800337D585
:1033600060680028E1D033E06068B0F5803F10D09D
:10337000B0F5A02F286810D020F48030286028688D
:1033800020F4802028606068A8B1FFF721F8064685
:103390000DE0286840F48030F4E740F48020286095
:1033A000F7E700BFFFF714F8801B642873D828687C
:1033B0008003F7D50CE0FFF70BF8064605E000BFE9
:1033C000FFF706F8801B6428F0D828688003F7D43C
:1033D0002078DFF8AC8280074FF0000A3ED5A7487E
:1033E000001D016811F00C0F08D00068C0F38100C7
:1033F00002280BD1D9F80000400207D428688007C2
:1034000016D5E068012800D112E033E1E068B8B1D8
:103410000120C8F80000FEF7DBFF064605E000BF0C
:10342000FEF7D6FF801B0228C0D828688007F7D592
:103430002868216920F0F80040EAC10028600DE00A
:10344000C8F800A0FEF7C4FF064604E0FEF7C0FF80
:10345000801B02281FD828688007F7D4207800072F
:1034600022D5864F87486169703771B101210160AB
:10347000FEF7AEFF064604E0FEF7AAFF801B022817
:1034800009D838688007F7D50EE0C0F800A0FEF72D
:103490009FFF064605E082E0FEF79AFF801B0228A8
:1034A0007DD838688007F7D42078400768D5DFF8E2
:1034B000CCB100270BF13C0BDBF80000C0000BD4B3
:1034C000DBF8001041F08051CBF80010DBF8000071
:1034D000012700F0805000906B4E3068C00510D47A
:1034E000306840F480703060FEF772FF009005E0B5
:1034F000FEF76EFF0099401A022850D83068C005C8
:10350000F6D55E4EA0686C3601280FD005283068CD
:1035100010D020F001003060306820F004003060EE
:10352000A068B8B1FEF754FF00900FE0306840F09B
:103530000100F4E740F004003060F7E7FEF748FFD1
:103540000099411A41F28830814266D8306880077C
:10355000F4D50EE0FEF73CFF009007E0FEF738FFE1
:103560000099411A41F28830814256D8306880076C
:10357000F4D42FB1DBF8001021F08051CBF800100B
:10358000A069C8B33D49091D0968C1F38101022939
:103590004AD00228504607D0C8F8600000E03CE05E
:1035A000FEF716FF04463BE04746C8F86000FEF70A
:1035B0000FFF064605E000BFFEF70AFF801B02284A
:1035C0002BD828688001F7D4D4E907010843A16A01
:1035D0002E4A490802EB0141626A41EA821108431E
:1035E00094F82C1040EA0161C9F8001001203866F7
:1035F000FEF7EEFE044606E03EE000BFFEF7E8FE02
:10360000001B022809D828688001F7D534E000BFE4
:10361000FEF7DEFE001B022802D90320BDE8F88F6A
:1036200028688001F4D427E00128F7D0D9F80000F9
:10363000E26900F4800191421CD1226A00F03F014E
:10364000914217D147F6C071626A0140B1EB821F07
:1036500010D1A26A4FF0FF3300F4403103EB520265
:10366000B1EB024F06D194F82C1000F07060B0EB73
:10367000016F01D00120D1E70020CFE704380240DC
:1036800000004742800E4742007000400000FFFFEC
:1036900070B50D46040003D094F82C0010B107E07B
:1036A000012070BD002084F82D00204600F011F8A4
:1036B000022084F82C00211D2068FEF751F9D4E97E
:1036C00000022946FEF7B0F9012084F82C00002002
:1036D00070BDFEF7DDBC10B5044690F82C00022842
:1036E00004D094F82C00012801D0012010BD022044
:1036F00084F82C002068FEF766F9012084F82C007D
:10370000002010BD70B5044690F82C000D4602282C
:1037100004D0012803D0052801D0012070BD02206B
:1037200084F82C002068FEF757F92868022805D095
:103730005FF0010084F82C00002070BD0520F9E73F
:103740007047704770B590F83C20012A32D00124B0
:1037500080F83C40022280F83D2003685A689D684A
:1037600022F070060A6832435A60134B02689A428C
:1037700014D0B2F1804F11D0104B9A420ED0104BA2
:103780009A420BD00F4B9A4208D00F4B9A4205D069
:103790000E4B9A4202D00E4B9A4204D1496825F052
:1037A00080031943916080F83D40002180F83C106F
:1037B000084670BD022070BD0000014000040040BA
:1037C00000080040000C004000040140004001409F
:1037D0000018004010B5040003D094F83D0010B16B
:1037E00007E0012010BD002084F83C00204600F0D6
:1037F0001FF8022084F83D00211D206801F0FCFC28
:10380000012084F8460084F83E0084F83F0084F8E4
:10381000400084F8410084F8420084F8430084F8B2
:10382000440084F8450084F83D00002010BD0000ED
:1038300008B500680649884208D10648016841F089
:1038400002010160006800F00200009008BD000065
:10385000000401404438024090F83D10012901D095
:1038600001207047022180F83D100168CA6842F0CB
:103870000102CA6000681149884214D0B0F1804F3B
:1038800011D00F4988420ED00E4988420BD00E4904
:10389000884208D00D49884205D00D49884202D09F
:1038A0000C49884204D1816801F00701062903D040
:1038B000016841F0010101600020704700000140F3
:1038C0000004004000080040000C004000040140DB
:1038D000004001400018004070B5044690F83C00DC
:1038E0000025012817D0012684F83C60022084F8C6
:1038F0003D002068826822F0770222F47F428260D5
:103900000868502838D00DDC20284FD005DC90B353
:10391000102811D14AE0022070BD302846D040283E
:103920000AD13BE060282FD070280DD0B0F5805F21
:1039300003D0B0F5005F12D0012584F83D6000206F
:1039400084F83C00284670BDCB68D1E9012120688D
:1039500001F0BAFC2068816841F0770109E0CB688A
:10396000D1E90121206801F0AFFC2068816841F4B1
:1039700080418160E1E719E0CA684968206801F088
:10398000B5FC5021206806E0CA684968206801F04B
:10399000BEFC6021206801F0A1FCCEE7CA6849683E
:1039A000206801F0A3FC40212068F4E7226801466A
:1039B0001046F0E770472DE9F04104460068C668FC
:1039C00005694FF00007A90713D5B10711D5F91EF6
:1039D000016101202077206880698007204602D09D
:1039E000FFF7E8FF04E000F07EF8204600F07CF8E6
:1039F0002777680716D5700714D521686FF0040083
:103A00000861022020772068806910F4407F2046FA
:103A100002D0FFF7CFFF04E000F065F8204600F089
:103A200063F82777280715D5300713D521686FF07D
:103A300008000861042020772068C06980072046BC
:103A400002D0FFF7B7FF04E000F04DF8204600F089
:103A50004BF82777E80616D5F00614D521686FF0E5
:103A600010000861082020772068C06910F4407FAA
:103A7000204602D0FFF79EFF04E000F034F8204615
:103A800000F032F82777E80708D0F00706D0216861
:103A90006FF001000861204600F028F8280608D5DC
:103AA000300606D521686FF0800008612046FFF7D8
:103AB00047FE680608D5700606D521686FF04000FD
:103AC0000861204600F01CF8A8060AD5B00608D503
:103AD00021686FF0200008612046BDE8F041FFF743
:103AE00030BEBDE8F08170477047000000680349B0
:103AF000884201D1FEF776BF7047000000140040F5
:103B0000704770B5040004D094F84100002510B14E
:103B100006E0012070BD84F84050204600F024F8F3
:103B2000242084F841002068C16821F40051C1605C
:103B3000204601F039FC2068016921F490410161BF
:103B40002068416921F02A0141612068C16841F47F
:103B50000051C1606564202084F8410084F842006F
:103B60006563002070BD000010B586B004461421C6
:103B70006846FCF7E7FB14492068884221D11348C6
:103B80000021026842F010020260006800F010009C
:103B900005900E481438026842F001020260006885
:103BA00000F0010005904FF4C06000900220CDE9C4
:103BB0000101032003900720049069460448FEF7A2
:103BC000DBFA06B010BD000000100140443802408E
:103BD000000002402DE9F843044690F84100984661
:103BE00016460D46202802D00220BDE8F88385B194
:103BF0007EB100206064212084F84100FEF7E8FBDC
:103C0000A6848146E684A0682027B0F5805F02D0B4
:103C100003E00120E9E7206910B12E4600250EE0FF
:103C200000260CE08021204601F044FCA8B9C6B172
:103C300016F8010B21684860E08C401EE084E08C9F
:103C40004B464FF00002CDF800800028EAD14FF03B
:103C50004001204601F02EFC40B184F84170032061
:103C6000C3E735F8020BC0F30800E3E784F84170BE
:103C70000020BAE7FEE701684A69D24352050FD433
:103C80006FF480624A61002140F8301F20224273A5
:103C90008173026942F004020261017301207047DE
:103CA000002070472DE9F84F0446C06A1E4693462F
:103CB0000D4621680A6842F480620A60082807D02D
:103CC000012805D010F5803F02D0206B112804D1C7
:103CD0002068016841F4807101604FF001195B4672
:103CE000002249462046009600F0CCF84FF40078B8
:103CF00040B120680068C00501D5C4F840800320A9
:103D0000BDE8F88F2069DFF884A0B0F5804F0FD0B0
:103D10000620216800EAD51747F0F0000861334615
:103D20005A460AF10601204600F0F4F858BB03E0B9
:103D3000E8B240F001001CE02168E8B208613346B7
:103D40005A465146204600F0E5F8E0B9206841693E
:103D500081690091016841F4807101605B46002235
:103D600049462046009600F08DF80028C1D147F062
:103D7000F1002168086133465A465146204600F05A
:103D8000C9F80028BCD00120BAE7000002000100F9
:103D9000F8B50446C06A1E460D461746082807D0E7
:103DA000012805D010F5803F02D0206B122804D1E5
:103DB0002068016841F480710160134600224FF0D1
:103DC00001112046009600F05DF840B120680068BF
:103DD000C00502D54FF4007020640320F8BD2069AF
:103DE000B0F5804F0ED00620216800EAD51040F0D3
:103DF000F000086133463A460B49204600F08AF845
:103E000078B902E005F0FE0000E0E8B22168086140
:103E1000054933463A46891F204600F07BF80028C2
:103E2000DCD00120F8BD00000800010070B5164686
:103E30000D4604461EE02046FFF71DFF08B1012095
:103E400070BD681C16D0FEF7C3FA801BA84200D8CC
:103E500085B920684069C04340070BD5002044F86D
:103E6000300F20216173A073216941F0200121618D
:103E70002073E4E720684069C0434007DBD400209A
:103E800070BD00002DE9F047984617460D460446E0
:103E9000C1F30746DDF820902AE000BFB8F1FF3FEC
:103EA00026D0FEF795FAA0EB0901414502D8B8F1FA
:103EB000000F1DD12068012E16D0806925EA000070
:103EC0000004000C12D00020B84211D1002044F8A8
:103ED000300F20216173A073216941F0200121611D
:103EE00020730120BDE8F0874069E7E70120EBE798
:103EF0002068012E0AD0806925EA00000004000C29
:103F000006D00020B842C9D00020EBE74069F3E7B3
:103F10000120F7E72DE9F047984616460D4604467E
:103F20004FF000094FF0200AC1F3074723E0206853
:103F30004069C043400515D42068016841F4007110
:103F4000016021686FF480604861C4F8309084F8A3
:103F50003DA084F83E90216C41F00401216484F876
:103F60003C9021E0701C06D0FEF732FAA0EB08006E
:103F7000B04203D816B1012F1FD021E02068012FD5
:103F800015D0806925EA00000004000C18D000BF9D
:103F900044F8309F84F80DA084F80E90216941F018
:103FA0002001216184F80C900120BDE8F087406970
:103FB00025EA00000004000CEAD12068406901E015
:103FC0002068806925EA00000004000CAFD1ECE70E
:103FD0002DE9F041002590460E460446202728E0B2
:103FE0004069C043C0060CD454F8301B6FF0100079
:103FF000486144F810596777A577206A20622577D1
:1040000014E0FEF7E5F9A0EB0800B04200D886B94D
:1040100020684069C04340060BD544F8305F6773A1
:10402000A573206940F02000206125730120BDE8C0
:10403000F08120684169C9434906D1D40020F6E7E0
:1040400070B516460D4604461EE02046FFF713FEE7
:1040500008B1012070BD681C16D0FEF7B9F9801BAD
:10406000A84200D885B920684069C04300060BD536
:10407000002044F8300F20216173A073216941F0C2
:10408000200121612073E4E720684069C0430006F5
:10409000DBD4002070BD000030B58DB034216846FF
:1040A000FCF750F924480024132144608460C46064
:1040B000C0E904419F21C16140F29F414162022554
:1040C00040F23F518561C1621621016240F26E21CA
:1040D000816240F27A21016380F8344080F83540F3
:1040E00080F83640FEF715FD08B1FDF721FC4FF4CE
:1040F00080604FF41671CDE90040CDE90241FF2206
:104100000495CDE905240522CDE90702CA06CDE9CB
:104110000A018DF8304009928DF831408DF8324017
:10412000002269460448FEF7CBFC002801D0FDF7C9
:10413000FFFB0DB030BD0000F00D002070B592B057
:1041400014216846FCF7FEF8302105A8FCF7FAF8C0
:104150003C480025016841F020010160016801F040
:1041600020011191016841F040010160016801F0F6
:1041700040011191016841F080010160016801F086
:1041800080011191016841F480710160016801F4BE
:1041900080711191016841F0020101600068294CB1
:1041A00000F0020014341190206820F0806020603C
:1041B00008200590D82002260990F0030E900B9657
:1041C00005A8FEF779FE08B1FDF7B2FB206840F0C4
:1041D000806020602068029500F0806011900324C8
:1041E0000E20CDE903404FF48060CDE9000669461A
:1041F0001548FDF7C1FF4FF40C6000906946134865
:10420000FDF7BAFF4FF47E40009069461048FDF775
:10421000B3FF40F2F760009069460E48FDF7ACFF2F
:1042200000940120CDE901050B4C69462046039519
:10423000FDF7A2FF012203212046FEF7C4F812B0C9
:1042400070BD0000303802400014024000180240E7
:10425000001C02400020024000040240F0B5036848
:104260008C88DD68C5F30B452C442504882404EBB9
:10427000C2141E5906F470461E5103680F68DE68AA
:10428000C6F30B46761C3E442E431E5103688C89B0
:10429000DD68C5F30A052C4425048C2404EBC21404
:1042A0001E5906F470461E5103688F68DE68C6F317
:1042B0000A06761C3E442E431E519423046803EBE9
:1042C000C213E55825F00705E55005680C69EC5068
:1042D00091F831300C7E1E0291F8323091F8305056
:1042E0001B04354343EA04631D439C24036804EB29
:1042F000C2141D519823046803EBC213E55825F03E
:10430000FF05E55005684C69EC50A023046803EBF9
:10431000C213E55840F20776B543E550D1E90745A9
:104320002C430568EC50AC25046805EBC2154B6ABC
:1043300063510B698BB3012B32D0042B32D0022B8B
:1043400030D0032B2ED0072B2CD00123B0240568AE
:1043500004EBC2142E5906F0E0262E51D1E9006577
:10436000AD1B0E8D5D435E43ED1C45EA06430568BB
:104370002B51B423046803EBC213E5586FF30A050D
:10438000E5500468C96AE1500068842101EBC2115C
:10439000425842F001024250F0BDFFE70423D5E746
:1043A0000323D3E70223D1E71FB50021164800916C
:1043B00001910291134A039102604FF48032C0E9E7
:1043C000012101240161047680F820100F4AC0E920
:1043D0000A21C461C16080F830104461FDF72DFCF2
:1043E00008B1FDF7A5FA0B20CDE9000406200290E4
:1043F00069460548FDF76AFB002801D0FDF798FAE9
:104400001FBD0000002001408C0C00200100000FA7
:10441000074910B5054808600846FDF76DFD0028FE
:1044200003D0BDE81040FDF783BA10BD0030024054
:10443000580000200E4810B50C4901600021416071
:104440008160C1608162C16201634163FDF7CCFD9F
:1044500008B1FDF76DFA01210548FDF773FD00284D
:1044600003D0BDE81040FDF763BA10BD00B00240B4
:10447000D40C002010B588B01C216846FBF762FF01
:104480001C4C1B480821206000206060C4E9020128
:1044900010212161402161614FF4C071C4E906100F
:1044A0004FF400602062400060624000A062022081
:1044B000072104228DE8070003910321CDE90410B0
:1044C000069069462046FFF7E3F808B1FDF730FA99
:1044D0000120A0604FF02040D0F8401121F00301EE
:1044E000491CC0F84011034800F04EFA08B010BD56
:1044F000400100A0140D002010B5164813F0B5FEC1
:10450000154C2060FCF766FDFCF7F8FB114A002112
:104510001032124813F0A8FF0E4A606034320021B6
:104520000F4813F0A1FF0B4AA060583200210D483C
:1045300013F09AFF074AE0607C3200210A4813F02A
:1045400093FF044A2061A0320021084813F08CFF39
:10455000606110BDD8AA0108400000201D5100086C
:1045600049530008C18D010829510008210D000898
:104570002DE9F04786B014216846FBF7E3FE614859
:104580000024016841F480710160016801F48071C8
:104590000591016841F004010160016801F0040126
:1045A0000591016841F020010160016801F02001DE
:1045B0000591016841F080010160016801F080010E
:1045C0000591016841F001010160016801F00101FC
:1045D0000591016841F002010160016801F00201EA
:1045E0000591016841F040010160016801F040015E
:1045F0000591016841F010010160016801F01001AE
:104600000591016841F0080101600068DFF8F89049
:1046100000F00800059000224FF484714846FDF731
:10462000D2FEDFF8E880002240214046FDF7CBFEB5
:10463000DFF8DCA0012220215046FDF7C4FE012551
:104640004FF48070CDE90005CDE902546946484633
:10465000FDF792FD6803CDE900042E4F6946384608
:104660000294FDF789FDCDE90054022669462A48E7
:104670000296FDF781FD0C208DE831006946404629
:10468000FDF77AFD30208DE8510069463846FDF788
:1046900073FD40201126CDE90006CDE9025469469C
:1046A0004046FDF769FD8020CDE90004694640469B
:1046B0000294FDF761FD0827CDE90254CDE90076AB
:1046C00069464846FDF758FD4FF404100097CDE9C0
:1046D000010569465046FDF74FFD20200090CDE9C9
:1046E0000154694650460394FDF746FD002205211A
:1046F0000920FEF777FB0920FEF766FB06B0BDE850
:10470000F08700003038024000200240001C0240C8
:10471000000402400008024000000240144810B5A6
:10472000124901601349416000214FF480428160C9
:10473000C0E9031241618161C1610162FDF78EFE32
:1047400008B1FDF7F5F800210948FDF747FE08B16B
:10475000FDF7EEF800210648FDF761FE002803D0C2
:10476000BDE81040FDF7E4B810BD0000005800405F
:10477000480D0020A0860100144810B512490160C0
:104780001349416000214FF480428160C0E9031267
:1047900041618161C1610162FDF760FE08B1FDF711
:1047A000C7F800210948FDF719FE08B1FDF7C0F868
:1047B00000210648FDF733FE002803D0BDE8104075
:1047C000FDF7B6B810BD0000005C00409C0D002055
:1047D000A086010010B58EB034216846FBF7B2FD0B
:1047E000274826490024C0E9001484601221C460CF
:1047F000C0E90441012181611921C16103210162E4
:1048000040F29921416240F2E311816240F29F211E
:10481000C16240F2E511016380F8344080F8354010
:1048200080F83640FEF775F908B1FDF781F84FF4CE
:104830008060CDE900404FF4167102220294CDE968
:104840000312FF22CDE905240522CDE90702CA069D
:10485000CDE90A018DF8304009928DF831408DF88C
:104860003240002269460648FEF72AF908B1FDF7F2
:104870005FF8FFF711FC0EB010BD000000680140AA
:10488000F00D002010B586B0002418480094019463
:1048900002940394049414490594016044F24F6116
:1048A000C0E901146321C0E9031444618461FEF787
:1048B00091FF08B1FDF73CF84FF480500090694635
:1048C0000A48FFF709F808B1FDF732F82020CDE9D2
:1048D000040404A90548FEF735FF002801D0FDF7C0
:1048E00027F806B010BD000000040140980E00201B
:1048F00010B514F099FABDE8104014F097BA70475B
:104900000C4810B50A4901604FF4E13141600021C3
:1049100081600C22C160C0E904128161C161FFF7AE
:10492000F0F8002803D0BDE81040FDF701B810BD35
:1049300000100140E00E0020FEE7FEE71FB5002159
:104940000090012001900620CDE902010C46694645
:104950000C48FDF7BBF818B90A48FDF731FA10B159
:10496000002004B010BD0A210648FDF7D3F918B99C
:104970000448FDF75FF984B20248FDF79FFA20462C
:10498000EFE700008C0C00207FB5064601250020D3
:1049900003901020CDE90050AC1E224669463046F7
:1049A0000295FEF7AFFE08B1FCF7C2FF0120FDF74C
:1049B0005DFB02200090224669463046FEF7A2FECB
:1049C00008B1FCF7B5FF03200090082002902246B2
:1049D00069463046FEF796FE08B1FCF7A9FF4FF492
:1049E0000C70CDE902500421009122466946304600
:1049F000FEF788FE08B1FCF79BFF40F26A51304693
:104A0000FEF769FE002801D0FCF792FF7FBD000091
:104A100000EE100A30B52449B8EE400ADFED210A55
:104A200091ED081ACA8831EE001A00EE102AB8EE8D
:104A3000400A31EE400A20EE200A81ED080ABDEE60
:104A4000C00AC88010EE100A10F5006001D50022DF
:104A500006E0B0F5805F02DB40F6FF7200E082B254
:104A60001148CC78114B8078052C02D2641CCC7094
:104A700004E033F810404D6A2C1B4C6223F81020E0
:104A80004B6A401C1A44C0B24A628870052801D3A0
:104A900000208870C87802EB5001B1FBF0F080B2C2
:104AA00030BD000048E17A3F040000209C07002050
:104AB00070B504000FD0084D4FF0FF31A86A13F015
:104AC000ABFB302205492046FBF723FCA86ABDE872
:104AD000704013F0FEBB70BD04000020BC0200203B
:104AE00070B530210A48FBF72DFC0A4813F0BDFBD6
:104AF00009494FF400658862284600F00FF8044C1D
:104B0000658013F06FFA012084F82E0070BD00005C
:104B1000BC02002090AA01080400002010B50D4935
:104B20009FED0B0A002281ED080AC8808A700520DB
:104B3000C870094C10464FF400634A6224F81030E4
:104B4000401CC0B202F500620528F7D34A6210BDCE
:104B500000000000040000209C07002070B50C4DF0
:104B600006464FF0FF31A86A13F056FB094C46B1D8
:104B7000012060712088FFF7D1FF4FF40060608052
:104B800001E000206071A86ABDE8704013F0A1BB8D
:104B900004000020BC02002070B50C4C05464FF00C
:104BA000FF31A06A13F038FB094900203DB1012212
:104BB0009FED080A0A7584ED070A607000E0087529
:104BC000A06ABDE8704013F084BB00000400002020
:104BD000BC0200200000000070B5144C05464FF0E8
:104BE000FF31A06A13F018FB114A0021BDB101206A
:104BF00082F82B00118582F82A1082F82D1082F895
:104C00002C1042F8181F9FED0B0A5160118182EDA4
:104C1000030AA1802170A16084ED030A01E082F8FB
:104C20002B10A06ABDE8704013F053BB04000020B5
:104C3000BC0200200000000000278CB03E463D462C
:104C4000FFF74EFFFDF7C4FB04466846FFF730FF51
:104C50009DF8050028B1E01B052802D3274600F087
:104C600017F89DF8140028B1A01B142802D326467B
:104C700000F068F89DF82B0028B1601B0A2802D3C9
:104C8000254600F017F9012013F0E8F9DAE70000F3
:104C90002DE9FC47FBF756FE8046FBF747FE8246B0
:104CA0000025FDF795FB0646FBF758FE0446FFF787
:104CB000AFFE814658EA0A0005D1322C03D940F6EE
:104CC000CD70844200D301250E4F3869301AFA287E
:104CD00008D33E61CDE9008A2B464A4621460AA008
:104CE00011F0F2FE4FF0FF31B86A13F095FA144854
:104CF00005710480A0F80290B86ABDE8FC4713F083
:104D0000E8BA0000040000205B4543475D20726163
:104D1000773D25752066696C74657265643D2575FF
:104D2000206C656164734F66663D2575206C6F70FD
:104D30003D2575206C6F6E3D25750D0A0000000045
:104D4000BC020020F0B52DED028B83B000250520BC
:104D5000FFF7F4FD00240520FFF7F0FD641CE4B22A
:104D60000544102CF7D33E4CC5F30F10617891B376
:104D700094ED070ADFED3B0A9FED3B1A60EE200A37
:104D800000EE100AB8EE400A40EE010AC4ED070A30
:104D900094ED070AB6EE008A40F6FF7130EE080A7D
:104DA000BCEEC00A10EE100A87B240F6E440784329
:104DB000B0FBF1F53846FCF76BFBB5EEC00AF1EE3F
:104DC00010FA12DDF2EE040A00EE208ABCEEC80AE8
:104DD00010EE106A0AE0FFE700EE100A0120B8EEBC
:104DE000400A84ED070A6070D2E7002600EE105AF0
:104DF0009FED1E1AF8EE400A80EE810ADFED1C0AD4
:104E000020EE208AFDF7E4FA6169411AFA2914D3E9
:104E100060616420684340F6E4410A22B0FBF1F18E
:104E2000B6FBF2F0B6FBF2F302FB1060CDE9000135
:104E30002A4639460FA011F047FE4FF0FF31A06A15
:104E400013F0EAF91A48C780C0E9025680ED048AD7
:104E5000A06A03B0BDEC028BBDE8F04013F039BA94
:104E6000040000209A99593F9A99193E00404E45F6
:104E70000000C8425B4D535032305D207261773D77
:104E80002575206D763D256C752070726573737580
:104E900072653D256C752E256C75206D6D486720FB
:104EA00070657263656E743D256C750D0A000000B7
:104EB000BC0200202DE9F04F2DED028B85B04FF0A4
:104EC000000ACDF808A0CDF80CA0FDF781FA054640
:104ED0009FED6B8A02A812F07BFF9DED020A694CE0
:104EE0004FF0FF31BCEEC00AA06A10EE107A9DEDC3
:104EF000030ABCEEC00A10EE106A13F08DF9624886
:104F00006249C0E906768F427DD98E42FCD90122E2
:104F100080F82C2000EE107A8146014600F1300224
:104F2000A088B8EE400A02EB80024FF4E17B82EDEC
:104F3000000A00EE106A564AB8EE400A02EB800200
:104F4000401C82ED000A80B2A0802278C2EB0212DF
:104F500002EB820200EB42021FFA82F8642208FB95
:104F600002F2B2FBFBF2A1F8288089F82A209628E9
:104F700061D345489621303012F056FF44498046AF
:104F80009622A1F5167012F0A1FFA1684144A1601C
:104F9000D4ED030A70EE800AC4ED030A2078401CA9
:104FA000C2B222705046A4F804A0032A3BD3B0EE4C
:104FB000081A032280EE810A491CB1FBF2F11FFAA4
:104FC00081F84946012221F8208FF2EE040A81ED92
:104FD000010A4A7320EE200AC872A1F808B06422C0
:104FE00089F82A20BDEEC00A2070A06084ED038AF3
:104FF00010EE105AA06A13F06CF90A2095FBF0F13C
:1050000000FB115100E026E095FBF0F0CDE9000136
:105010004346324639461FA011F056FD05B0BDEC9F
:10502000028BBDE8F08FA069281AFA2824D3A56165
:10503000B9F8288004E0A069281AFA281CD3A561D1
:10504000A06A13F046F93B465A4641461EA0009618
:1050500011F03AFDE2E780F82CA0A069281AB0F51B
:10506000FA7F09D3A561A06A13F033F932463946B5
:1050700020A011F029FDD1E7A06A13F02AF9CDE7AD
:105080000000000004000020BC020020A0860100F7
:10509000440500205B4D415833303130325D20648F
:1050A0006F6E652069723D256C75207265643D25C3
:1050B0006C752068723D25752073706F323D2564D4
:1050C0002E25640D0A0000005B4D4158333031300D
:1050D000325D2073616D706C653D25752F257520DF
:1050E00069723D256C75207265643D256C750D0AED
:1050F000000000005B4D415833303130325D206E8E
:105100006F2D66696E6765722069723D256C75202A
:105110007265643D256C750D0A00000000F00AF907
:10512000102012F09BFFF9E7FFF786FD10B54FF056
:10513000E020006914F0EAFE012803D0BDE8104029
:1051400014F006BA10BD000030B593B030216846A7
:10515000FBF7F8F814210CA8FBF7F4F81D4800251C
:10516000016841F080510160006800F080501190AA
:105170001948016841F4404101600068022400F4CC
:105180004040119001200390102004900094069458
:105190000820CDE90750B420CDE9090404200B9084
:1051A0006846FEF7BFF888B9FDF74EFE70B90CA946
:1051B0000F2081E831004FF4A0500F90E0021090D2
:1051C00005210CA8FDF7A2FF002801D0FCF7B0FBD9
:1051D00013B030BD40380240007000400248016802
:1051E00041F470010160704788ED00E00148FEF76E
:1051F000E2BB0000280F0020F0B50268274B284DC5
:10520000284E294F294C4FF0804C984209D06045D8
:1052100007D0A84205D0B04203D0B84201D0A04286
:1052200004D122F0700E4A6842EA0E0298421BD066
:10523000604519D0A84217D0B04215D0B84213D05B
:10524000A04211D01A4DA8420ED01A4DA8420BD040
:10525000194DA84208D0194DA84205D0184DA842B2
:1052600002D0184DA84203D122F44075CA682A43DF
:105270004D6922F080022A438D68C5620D688562FF
:10528000984201D0A04201D109690163016841F04F
:1052900004010160012141610260F0BD0000014094
:1052A0000004004000080040000C004000040140E1
:1052B0000040014000440140004801400018004007
:1052C000001C00400020004010B5846842EA032220
:1052D00024F47F440A432243826010BD826822F096
:1052E00070020A4342F007018160704710B5036AFB
:1052F000046A24F001040462846924F0F00444EA9E
:10530000021423F00A020A438461026210BD10B540
:10531000036A046A24F010040462846923F0A00381
:1053200024F4704444EA023243EA011182610162CA
:1053300010BD00000348006810F86A1F491C017086
:1053400003F016BC9002002013F0ACBD01490870B8
:1053500070470000FC00002001680C3151E8002F6C
:1053600022F4907241E80023002BF5D1016814313A
:1053700051E8002F22F0010241E80023002BF5D173
:10538000016B012909D101680C3151E8002F22F08D
:10539000100241E80023002BF5D1202180F84210B3
:1053A000002101637047000070B504460068016980
:1053B000E26821F44051114301612169A068E2696A
:1053C00008436169114308432168CA6849F20C63C4
:1053D0009A430243CA6020684169A26921F440717E
:1053E0001143416131492068884202D030498842E6
:1053F00002D1FDF755FF01E0FDF742FFE26900230E
:10540000192164253226B2F5004F626828D0A0FB2E
:105410000101930F9200FAF74BFF0146B0FBF5F044
:105420006FF01802504301EB800006EB0010B0FB58
:10543000F5F000F0F002B1FBF5F002EB0012B1FB69
:10544000F5F06FF01803584301EB800006EB0010F5
:10545000B0FBF5F000F00F0021681044886070BDCB
:10546000A0FB010192185B41FAF722FF0146B0FB55
:10547000F5F00201B1FBF5F06FF01803584301EBB2
:10548000800006EBC000B0FBF5F000F0F80002EB86
:105490004002B1FBF5F0584301EB800006EBC00081
:1054A000B0FBF5F000F00700D6E700000010014067
:1054B000001401402DE9F843984617460D4604466E
:1054C000089E24E0701C22D0FCF782FFA0EB0800AD
:1054D000B0421AD8CEB12068C168490717D5802DCF
:1054E00015D0402D13D00168C94309070FD40168B6
:1054F0000025406800902046FFF72EFF08206064DA
:1055000084F840500120BDE8F8830320FBE72068C1
:10551000006835EA000004D00020B842D2D0002054
:10552000F1E70120F9E7FEE700B516488DB00078F5
:10553000C00724D1134811F006FB00B300203F211F
:10554000CDE90910104A0B90104B0C90CDE90732B1
:105550000121CDE905100422CDE9020201901D20B0
:105560000491009021230D2209490A4805F012FCFC
:10557000094A0A49FAF710FF0248AFF300800DB05C
:10558000044800BD280100204097090854970908E5
:1055900038910908385A002000000008DDAD0008E5
:1055A00000B516488DB00078C00724D1134811F01B
:1055B000CAFA00B300203F21CDE9091001210B9068
:1055C0000F4A104B059106910C90CDE90732042249
:1055D000CDE9020201900A20049100900C2344229C
:1055E00009490A4805F0D6FB094A0A49FAF7D4FEE8
:1055F0000248AFF300800DB0044800BD1801002040
:10560000F0910908449709083C820908885900204C
:1056100000000008DDAD000800B516488DB0007828
:10562000C00724D1134811F08EFA00B300203F21A7
:10563000CDE9091001210B900F4A104B05910691FD
:105640000C90CDE907320422CDE90202019014202A
:10565000049100901823442209490A4805F09AFB56
:10566000094A0A49FAF798FE0248AFF300800DB0E4
:10567000044800BD1C010020089209084897090849
:10568000F4850908B459002000000008DDAD0008C9
:1056900000B516488DB00078C00724D1134811F02A
:1056A00052FA00B300203F21CDE9091001210B90EF
:1056B0000F4A104B059106910C90CDE90732042258
:1056C000CDE9020201901A20049100901F23462286
:1056D00009490A4805F05EFB094A0A49FAF75CFEE7
:1056E0000248AFF300800DB0044800BD2001002047
:1056F000249309084C970908AC890908E05900204F
:1057000000000008DDAD000800B517488DB0007836
:10571000C00725D1144811F016FA08B300203F2124
:10572000CDE90910124B02210B900C90CDE9061324
:105730000E4A08920422CDE902020591019001214E
:10574000282004910090302344220A490A4805F099
:1057500021FB0A4A0A49FAF71FFE0348AFF300800B
:105760000DB0054800BD0000240100205C9509082B
:1057700050970908808D09080C5A00200000000885
:10578000DDAD000810B50023002810D000290ED090
:1057900052B1491E8CB2D15C31B19C4204D920F87F
:1057A00013105B1C9BB2F6E7002120F8131010BD0C
:1057B00001F04BBF01F04BBF01F060BF01F05FBFD4
:1057C00001F05FBF01F05EBF01F05DBF01F05CBFA3
:1057D00001F05BBF01F05BBF7047000070B544F2A1
:1057E000A453C51844F2F8540319061D00F114011E
:1057F00000F13C02036186E82600124A0260084676
:1058000006F0D4F8104940F8281B06F0CFF80F49ED
:10581000016044F26851084406F0C8F80C4940F8A9
:10582000481B44F2EC5503F059F9401B024641195C
:10583000204401F0F7FB051B281902F0F3F8284675
:1058400070BD000024AE010810CA0108DCC90108BF
:1058500044CA010810B50A49016044F2F8510844ED
:1058600002F0DAF9543806F0A9F8A0F58A40683851
:1058700006F0A4F8283806F0A1F8143810BD00008E
:1058800024AE010810B504460B4644F2405005A270
:105890001021204409F0ABFE04F28450BDE8104012
:1058A00010F079B925750000C06B01F081B9C06BAB
:1058B00001F08CB90A46D0F800115143CC3005F004
:1058C000A6BB3EB5054600F077F944F240502844A7
:1058D00005F28451C5F8CC05B420088108680C464F
:1058E000D0F88420684690479DE807003C3407C400
:1058F000282024F83E0C54F8480D2146D0F8842086
:10590000684690479DE807003C3484E80700284635
:10591000BDE83E4000F024B800F5BA6001B10121B5
:1059200080F8251010F037B910B500F6BC0419B195
:1059300000221146FF2002E096221146104607F091
:10594000E5FEA0622046BDE8104010F024B9704783
:10595000002180F8F51500F5BA6010F01CB90000C0
:1059600070B50446CC30054606F0B7F9284610F06D
:1059700012F944F2405009A21021204409F037FEE8
:1059800004F2845010F007F9002104F5BA6084F89D
:10599000F515BDE8704010F0FEB800002D2D000098
:1059A000C06B01F02DB9C06B01F036B9C06B01F0CE
:1059B0004BB90168096C084710B500F037F9014987
:1059C000016010BD38AE010801F0B8B870477047EB
:1059D000704770477047000000487047B4AB01083B
:1059E0000B20704701F05DB97047000010B501F061
:1059F00077F90149016010BD84AE010801F0ECBAED
:105A000070B5044600F594700021054604F081FA53
:105A100016A2102104F5986009F0E9FD15A21021E5
:105A200004F59C6009F0E3FD13A2102104F5A060C9
:105A300009F0DDFD10A2102104F5A46009F0D7FDE6
:105A4000284610F0A8F804F5037010F0A4F804F547
:105A5000167010F0A0F804F5297010F09CF804F509
:105A60003C70BDE8704010F096B800002D2D2E2D32
:105A7000000000002D2D000030000000C06B01F080
:105A80006FBD70B5044601F0E3FA04F59860C4F800
:105A900054022030C4F8A0022030C4F8EC022030B8
:105AA0004FF48275C4F83803294604F503700EF0EC
:105AB000ADF8294604F516700EF0A8F84FF4AA7553
:105AC000294604F529700EF0A1F8294604F53C702A
:105AD0000EF09CF82046BDE87040FFF791BF000033
