:020000040800F2
:1000000040B300208D0200081F5600080D4B000869
:100010001D560008C91D00082369000800000000E3
:10002000000000000000000000000000CD010008FA
:100030008D1E00080000000029020008516400081D
:10004000A7020008A7020008A7020008A7020008EC
:10005000A7020008A7020008A7020008A7020008DC
:10006000A70200088F1E0008A7020008A7020008C8
:10007000A7020008A7020008A7020008A7020008BC
:10008000A7020008A7020008A7020008A7020008AC
:10009000A7020008A7020008A7020008A70200089C
:1000A000A702000821650008A702000815650008DE
:1000B000A7020008A7020008A7020008A70200087C
:1000C000A7020008A7020008A7020008A70200086C
:1000D000A7020008A7020008A7020008A70200085C
:1000E000A7020008A7020008A7020008A70200084C
:1000F000A7020008A7020008A7020008A70200083C
:10010000A7020008A7020008A7020008A70200082B
:10011000A7020008A7020008A70200082D65000832
:10012000A7020008A7020008A7020008A70200080B
:10013000A7020008A7020008A7020008A7020008FB
:10014000A7020008A7020008A7020008A7020008EB
:10015000A7020008A7020008A7020008A7020008DB
:10016000A7020008A7020008A7020008A7020008CB
:10017000A7020008A7020008A7020008000000006C
:10018000A7020008A7020008A7020008A7020008AB
:10019000A7020008A7020008A7020008A70200089B
:1001A000314F0008A7020008811E0008DFF818D0B0
:1001B00000F01CFB00F0E0F800480047554802083A
:1001C000AFF3008000F039F940B300202C4B1968E0
:1001D0000868B0E8F04F80F30988BFF36F8F4FF0E5
:1001E000000080F311887047000000000848006894
:1001F000006880F308884FF0000080F3148862B62E
:1002000061B6BFF34F8FBFF36F8F00DF00BF00BF3A
:1002100008ED00E0DFF80C00016841F470010160B6
:10022000704700BF88ED00E0EFF30980BFF36F8FE8
:10023000134B1A681EF0100F08BF20ED108A20E93A
:10024000F04F106009B44FF0500080F31188BFF3F5
:100250004F8FBFF36F8F26F061FC4FF0000080F3EB
:10026000118809BC19680868B0E8F04F1EF0100F3B
:1002700008BFB0EC108A80F30988BFF36F8F704716
:1002800090000020EFF3058070470000064880478B
:1002900006480047FEE7FEE7FEE7FEE7FEE7FEE76B
:1002A000FEE7FEE7FEE7FEE705650008AD01000892
:1002B0002DE9F05F0546002092469B46884606469B
:1002C000814640241BE0284641464746224600F02E
:1002D0009FF853465A46C01A914110D3114618460A
:1002E000224600F086F82D1A67EB01084F46224699
:1002F0000120002100F07DF817EB00094E41201E7F
:10030000A4F10104DFDC484631462A464346BDE8F5
:10031000F09F40EA01039B0703D009E008C9121FC0
:1003200008C0042AFAD203E011F8013B00F8013BAF
:10033000521EF9D27047D2B201E000F8012B491EDB
:10034000FBD270470022F6E710B513460A46044672
:100350001946FFF7F0FF204610BD10B5002200E05F
:10036000521C835C8C5CA34201D1002BF8D1D8B223
:10037000E1B2401A10BD000070B5054C054D03E018
:10038000206820448047241DAC42F9D170BD000094
:10039000F8100F0808110F082DE9F041074615461F
:1003A0000E46102024F07CFA04000AD06760C4E9ED
:1003B000026500F03DF80168216004600020BDE89E
:1003C000F0810120FBE730B50B46014600202022DA
:1003D000012409E021FA02F59D4205D303FA02F552
:1003E000491B04FA02F52844151EA2F10102F1DCB2
:1003F00030BD202A04DB203A00FA02F100207047C9
:100400009140C2F1200320FA03F319439040704752
:10041000202A04DB203A21FA02F00021704721FA59
:1004200002F3D040C2F120029140084319467047C0
:1004300000487047D402002070472DE9F04106467D
:10044000FFF7F6FF8046454613E016B1E068B0427C
:100450000ED120682860D4E90101D8F800708847DF
:10046000204623F073FFD8F80000B842EBD100E03B
:1004700025462C68002CE8D1BDE8F0812DE9FE4F1F
:10048000804681EA0300C00F0C46009021F0004135
:1004900023F00045B8EB0200A94105D240462146B1
:1004A00090461C460B46024623F00040104347D0BE
:1004B000270DC7F30A00C3F30A510290401A0190B6
:1004C00040286BDAC3F3130040F4801B0098924677
:1004D00020B10023D2EB030A63EB0B0B01985946C2
:1004E000C0F140025046FFF784FF06460D465046D5
:1004F0005946019A00F08CF910EB08006141002484
:1005000087EA115284EAE7731A4340D0009A62B333
:10051000019A012A4FEA075215DC001B61EB020128
:100520004FF0004202EA0752CDE90042001C41F5BB
:10053000801132462B4600F08DF903B0BDE8F08FF4
:1005400040462146F9E7001B61EB0201001C41F522
:10055000801300185B412018A2F5001747EB030138
:1005600040EAD570B6196D4111E06D084FEA3606C4
:1005700045EAC0754FEA0752001B61EB0201001CFF
:1005800041F5801149084FEA3000001951413246C7
:100590002B4603B0BDE8F04F00F04DB900980122A2
:1005A00040000023D0EB020263EBE0730098214689
:1005B0004FEAE074B8EB000061EB0401E9E783F077
:1005C00000435BE781F0004158E72DE9FE4F81EAE7
:1005D000030404F0004421F0004100944FF0000BAC
:1005E00023F0004350EA01045ED052EA03045BD0DA
:1005F000C3F30A54C1F30A552C44A4F2F334019412
:10060000A0FB0254C1F3130141F48011C3F313039F
:1006100043F4801301FB024400FB034E840A970A53
:1006200044EA815447EA8357A4FB076802958D0A80
:1006300005FB07854FEA932C04FB0C542705029D0C
:100640004FEA065847EA1637B5EB08056EEB070C7C
:10065000870E920E47EA811742EA8312A7FB020136
:10066000B6EB0B0164EB00042B0D43EA0C335E1870
:1006700044EB1C50DA465146E7FB0201C5F3130474
:100680004FEA0B3343EA14534FEA0432019C43EA26
:100690000603A4F10C040294009CCDE900B400F020
:1006A000D9F803B0BDE8F08F00200146F9E72DE945
:1006B000F04D81EA030404F0004B21F0004514469C
:1006C0004FF0000A23F0004150EA050220D054EA1E
:1006D00001021DD0C5F30A570246C5F31303C1F347
:1006E0001300C1F30A5640F4801543F48013A7EBBE
:1006F0000608101BD64608F2FD3873EB050002D33E
:1007000008F1010801E092185B41B8F1000F03DA2B
:1007100000200146BDE8F08D00204FF48011064610
:1007200084460EE0171B73EB050705D3121B63EB22
:10073000050306434CEA010C49084FEA30009218C1
:100740005B4150EA0107EDD152EA030012D082EA80
:10075000040083EA0501084305D0101BAB4106D213
:100760000122002306E000224FF0004302E06FF078
:10077000010253101AEB06004CEB085110EB0A0073
:1007800041EB0B01BDE8F04D00F055B8C1F30A5242
:10079000C1F3130140F2FF3341F480119A4202DAAF
:1007A00000200146704740F233439A42A2F233429E
:1007B00002DC5242FFF72CBEFFF71BBE30B5041E11
:1007C00071F1000404DB4FF00044404264EB01018E
:1007D000141E73F1000405DB1C464FF00043524227
:1007E00063EB0403994208BF904230BD064C074DAD
:1007F00006E0E06840F0010394E8070098471034F1
:10080000AC42F6D3FFF7D6FC10080F0830080F08EB
:10081000202A06DBCB17203A41FA02F043EAE073C4
:1008200006E041FA02F3D040C2F1200291400843B1
:1008300019467047704710B5141E73F1000408DAAA
:10084000401C41F1000192185B411A4301D120F094
:10085000010010BD2DE9F04D92469B4611B1B1FA51
:1008600081F202E0B0FA80F220329046FFF7C1FD3B
:1008700004460F4640EA0A0041EA0B0153465A4635
:10088000084313D0114653EA010019D0C8F14002C1
:100890005046FFF7BDFD05460E46504659464246B6
:1008A000FFF7A7FD084305D0012004E020463946A4
:1008B000BDE8F08D0020054346EAE0762C4337433F
:1008C0000A986305E40AA0EB08000022FD0A44EA46
:1008D00047540A3002D500200146E9E70105101906
:1008E0006941DDE9084500196941BDE8F04DA2E71D
:1008F00030B58C1810F8012B12F00F0301D110F84D
:10090000013B120906D110F8012B03E010F8015B3E
:1009100001F8015B5B1EF9D101E001F8013B521EB9
:10092000FBD1A142E6D3002030BD000010B520214C
:10093000034802F089F8012800D0002010BD000013
:100940000008024010B51021034802F07DF801288C
:1009500000D0002010BD0000000802402DE9FF413A
:1009600000260B210091062003960121CDE90110FC
:1009700037466946154801F05BFB08B101F08AFA79
:10098000124801F0CFFC124D040006D00F4801F0D0
:1009900001FC204340F080700BE00A210B4801F07D
:1009A0006BFC0400094806D001F0F4FB204340F042
:1009B0000070286003E001F0EFFB86B22F6003486F
:1009C00001F02EFD04B03046BDE8F081F40C0020AB
:1009D00000000020464910B54A6822F440324A60BF
:1009E0004A6843681A434A6001684A6822F4807280
:1009F0004A6001684A68036942EA03224A60016862
:100A00004A6822F040724A6001684A6883681A4363
:100A10004A6001688A6822F400628A6001688A6814
:100A2000C3681A438A60816A6FF07062D1420168BC
:100A30008A6822F070628A6001688A680CD0836AD2
:100A40001A438A6001688A6822F040528A6001680D
:100A50008A68C36A1A4301E022F040528A60016842
:100A60008A6822F002028A6001688A68037E42EA8C
:100A700043028A6090F82010002901684A680FD06C
:100A800042F400624A6001684A6822F460424A60A7
:100A900001684A68174C436A04EB43331A4301E088
:100AA00022F400624A600168CA6A22F47002CA62D3
:100AB0000168CA6A838B104C04EB03531A43CA6261
:100AC00001688A6822F400728A6001688A6890F876
:100AD000303042EA43228A6001688A6822F48062E8
:100AE0008A6001688A68406942EA8020886010BD97
:100AF0000023014000E0FFFF0000F0FF11B1401AA9
:100B0000904201D3012070470020704700F010B8D8
:100B100070B50C4605460968FFF7F0FF002805D0C0
:100B20002560BDE87040022000F03CB970BD0000B7
:100B300005480021016041608160C160016141613F
:100B40000176417670470000E407002070B505008B
:100B500024D001F08BFF6979114A044689B12979C3
:100B600079B1116801B91060116840F2EE22411AA2
:100B7000914209D30A494FF4FA620831FFF7C8FFDE
:100B800002E00020106090602146284600F062F8E4
:100B900021462846BDE8704000F004B870BD000052
:100BA000E40700202DE9F0410E4690F84410244D52
:100BB00004460027A9B328460629407E29D00729E4
:100BC00030D0012068761F49A06C88420BDD4FF4BD
:100BD0007A7255F8141F3046FFF790FF18B10320C2
:100BE0002E6000F0DFF894F84400042825D116495F
:100BF000E06C164C4318124940F2DC521031A3420B
:100C000002D3134B984218DD3046BDE8F041FFF7A0
:100C10007FBF94F8591000290FD000280DD0012073
:100C200003E009E0002808D0022000F0BBF86F764E
:100C300094F84400002800D16F76BDE8F0810000F0
:100C4000E407002000005243323333C23233330210
:100C50000000604070B50B46024690F82B10234C04
:100C600001200025B9B1207692F82C0008B165600A
:100C700070BD606800B96360606840F2DC51181AAA
:100C80008842F5D3BDE8704018494FF4FA620C3140
:100C90001846FFF73DBF6560207E10B392F82D0027
:100CA000F8B11349506A134B0144994204D3118C93
:100CB00021B12839652901D3012100E000210E4B23
:100CC0001844B0F5002F04D3108C20B132384728D7
:100CD00001D309B907E009B1032000E0012000F0C9
:100CE00061F8257670BD0220F9E70000E4070020D6
:100CF000323333C23233E70400004CBD01490020D7
:100D0000087070473600002008B5002000F0A0F8F9
:100D10000D4C0E4D4FF0FF36206880B13346002257
:100D2000694623F0CBFF0028F6D128780028F3D1BC
:100D3000BDF802109DF8000000F058F8ECE76420C0
:100D400023F071FFE8E700005C000020360000207F
:100D500001460A4808B5006800280DD0084A1278F4
:100D6000002A09D104228DF80020ADF802100023DA
:100D70001A46694624F000F808BD00005C00002017
:100D80003600002010B504000AD0012000F060F801
:100D9000204623F048FFBDE81040002000F058B87E
:100DA00010BD000038B50F490C68002C13D00E4957
:100DB000097800290FD18DF80000ADF80210012844
:100DC0000ED002280AD0032806D00022002369464C
:100DD000204623F0D1FF38BD0322F7E70222F5E7D2
:100DE0000122F3E75C0000203600002010B570B14E
:100DF00001280ED0022814D003281AD04FEA01008F
:100E0000FFF7C0FFBDE81040002000F021B83C20F3
:100E1000F6E75020FFF7B6FF502023F004FF5020E4
:100E2000EEE75A20FFF7AEFF5A2023F0FCFE5A20CF
:100E3000E6E78C20FFF7A6FF502023F0F4FE8C207D
:100E4000FFF7A0FF502023F0EEFE8C20D8E7000033
:100E500008B550B15FF000008DF800003223012288
:100E60006946402000F01AF808BD0120F4E70000B0
:100E700010B5044623F0E4FE022801D0012809D170
:100E800005480068002804D0214623F0A9FF08B1D6
:100E9000002010BD012010BD64000020F8B50746F9
:100EA00015460E461C461846FFF7E2FF58B12B4682
:100EB000324639460548009401F0DAFF044600F056
:100EC0002FF82046F8BD0220F8BD0000B00D00202C
:100ED0002DE9FF4182B006460C9D1F4690462846EC
:100EE000FFF7C6FF48B1012303AA31460B4800951E
:100EF00001F0BEFF040004D00CE0022006B0BDE803
:100F0000F08146F001013B4642460448009501F05D
:100F1000B7FE044600F004F82046EFE7B00D0020CD
:100F200010B523F08DFE022801D0012807D1044816
:100F30000068002803D0BDE8104023F0AEBF10BD0C
:100F40006400002070470000002806D003490A68AA
:100F500002604A68426009890181704700080020E8
:100F600000F062B80B4910B50020088096224A8034
:100F700001220A7148718871CA7108720649486075
:100F80008860087000F088F8BDE81040002000F08C
:100F900067B8000000080020380000207FB501F08D
:100FA00065FD054616484168691A642922D34560E3
:100FB00001200026009001900620CDE9020634466B
:100FC0006946104801F034F800B10FE00D4801F017
:100FD000A9F958B90A210B4801F04EF918B9094886
:100FE00001F0DAF884B2074801F01AFA06480480E2
:100FF00000F090F804B02846BDE8704000F062B8F8
:1010000038000020F40C00200008002005498879F1
:1010100028B100208871002803D100F021B80120F8
:10102000F8E770470008002006480179002907D139
:10103000407918B15FF0000000F02EB80120FBE706
:1010400070470000000800200448017919B1002110
:10105000017100F05FB80121FAE7000000080020EC
:1010600010B504000AD000220121094801F0F9FC62
:1010700034B10120FFF7ECFE012005E00122F3E787
:101080000020FFF7E5FE00200249087010BD0000B7
:10109000000402403800002010B5040007D00022F0
:1010A0000221064801F0DDFC1CB1012002E0012212
:1010B000F6E700200249487110BD0000000402401C
:1010C0000008002011490A884B889A4201D9012260
:1010D00000E000228B7913B9CB7913B10AB1012357
:1010E00000E000230B720A490A7833B18B68C31AF7
:1010F000FA2B09D3886022B101E0002A04D0002035
:1011000000E00120FFF7ACBF70470000000800209E
:101110003800002006480179002908D0018840885D
:10112000814201D2012000E00020FFF7B5BF7047E7
:10113000000800200FB410B5094CA06918B14FF099
:10114000FF3123F04DFE03A9029821F0B7FFA069FB
:10115000002801D023F0A1FE10BC5DF814FB0000B4
:10116000480000200023002820D000291ED00A2A91
:101170001CD3A5220A705A224A7006228A7002786D
:10118000A2F5FA62CA7082780A71C2784A7102794D
:101190008A714279CA718079087200200A5C401C09
:1011A0001A44C0B2D3B20928F8D34B72704700007A
:1011B00010B586B0040024D01848007818B3002277
:1011C0006946174802F052FE00281AD1002205A9EC
:1011D000134802F029FE002813D19DF8170000F5EE
:1011E000FA6020809DF81500A0709DF81600E07050
:1011F0009DF8000020719DF8010060719DF80200CB
:10120000A07106B010BD40F2EA7020800120A070ED
:10121000E070002020716071F2E7000044000020BF
:10122000D40C0020002804D002490A880280897862
:1012300081707047440000202DE9FC472F480024AE
:10124000016841F080510160006800F0805000901A
:1012500002F0F2F92A4F3968DFF8A890494501D128
:10126000012600E00026254830300068C0F3012048
:10127000012801D0002620E0FEB1002000F038F95E
:101280005FEA000821482049C0E900144FF07F01BF
:1012900081604FF0FF01C0E903144461846102D012
:1012A00002F00EFE58B10020194DB8F1000F287061
:1012B00085F8018005D0314604E00120DEE70120F9
:1012C000F2E70021A970002816D0002E14D140F2B8
:1012D000EA70ADF8000001268DF804408DF8026038
:1012E0008DF805408DF803608DF80640684600F0E3
:1012F0004FF8C7F80090AE70BDE8FC874038024058
:101300005028004026205AA500280040D40C002078
:1013100044000020F0B58BB00546002400F0ACF886
:1013200000282DD00A2208A92846FFF71BFF00201D
:10133000154A08AD694620262B5C02EB131703F013
:101340000F033F780F55641CE4B2D35C0B55641C4B
:10135000E4B2092802D20E55641CE4B2401CC0B2AB
:101360000A28E9D30D200855641CE0B20A220A5469
:10137000401CC2B26423054803F078FB10B1002082
:101380000BB0F0BD0120FBE784850208140F00209C
:1013900030B5354D044687B0287800285AD020460D
:1013A00000F06AF8E8B320798DF8000060798DF8D4
:1013B0000100A0798DF8020000208DF80300039051
:1013C00004902078A0F5FA608DF81700A0788DF8C9
:1013D0001500E0788DF81600A0782188E3780328BE
:1013E00003D20C30491EC0B289B26424B1FBF4F2BE
:1013F00004FB1212B1FBF4F1401C00EB800404EB7F
:10140000C0000524B0FBF4F01844104400EB920037
:1014100000EB910001EB810108440721B0FBF1F2E0
:1014200000E017E001FB120060B1012801D0401E6E
:10143000C1B28DF81410002269460C4802F0F8FD84
:1014400040B901E00621F4E7002205A9074802F0AF
:10145000A3FD10B1002007B030BD06490448086064
:101460000120A870F7E7000044000020D40C002001
:1014700026205AA55028004030B5002830D00188D9
:10148000A1F5FA62642A2AD2827842B30C2A26D8BD
:10149000C37823B3541E0C2C01D31F2114E0022A5D
:1014A0000ED18C070CD16424B1FBF4F504FB1514A8
:1014B000BCB94FF4C874B1FBF4F504FB151181B14C
:1014C0000A49114411F8011C994208D301791729DE
:1014D00005D841793B2902D880793B2803D90020DF
:1014E00030BD1D21F0E7012030BD000078850208E5
:1014F00010B5174C4FF4FA6220B92068C0F30120F0
:10150000012815D0134801210160002101602168E4
:10151000204641F001012160022100F01DF8002861
:1015200015D0206820F4407040F48070206009E0FD
:101530002168204641F001012160022100F00CF8F1
:10154000002804D0206840F400402060012010BD35
:1015500070380240400E47422DE9F04117460D46D3
:10156000064601F083FA044608E000BF01F07EFA67
:10157000001BB84202D30020BDE8F0813068284249
:10158000F4D00120F8E7B5EEC00AF1EE10FA01D26E
:10159000B1EE400A704700001549B1F8C424602A32
:1015A00025D20B6C1BB1C31AB3F5AF7F1FD310EE5E
:1015B000903AB3F17C5F1ADB02EB420201EB82024C
:1015C00082ED110AB1F8C42402EB420201EB82025F
:1015D000C2ED120AB1F8C42402EB420201EB82020E
:1015E000D064B1F8C424521CA1F8C4240864704724
:1015F0000C08002070B500262DED028B9FED588A57
:10160000584CB4F8C404082801D257A11AE00025A8
:1016100010E000BF05EB450104EB810191ED120ADA
:10162000B4EEC80AF1EE10FA02DDB0EE408A2E46A2
:101630006D1CADB2A842EDD8B5EEC08AF1EE10FA3D
:1016400007D84BA1BDEC028B0720BDE8704000F02D
:101650003DBB06EB460004EB8000F6EE008A90ED01
:10166000110A4FF0FF3184ED040A28EE280A3046B3
:1016700000F09AF884ED050A9FED3F0A01213046FB
:1016800028EE000A00F090F884ED060AB4F8C404CD
:10169000E16C00EB400204EB8202136C00228B42EF
:1016A0001AD9591A00EE901ADFED341A411EB8EE1D
:1016B000601AC1EE210A01EE101AB8EE411AC1EE0D
:1016C000201A71EEA80AFCEEE00A10EE901AC9B2D8
:1016D0002177282901D304E02277082801D3282183
:1016E00003E0207FB42801D9B4212177D4ED050A85
:1016F000F4EEC00AF1EE10FA25DD10EE901A204843
:10170000814220DD10EE901A1E4B204699421ADAD3
:1017100010EE101A1C4B994215DD10EE101A1B4BDF
:10172000994210DA1A4B016999420CDD194B994222
:1017300009DA017F282906D3B42904D80121617769
:1017400015A1062002E0627715A1072000F0BEFA7D
:10175000BDEC028B0020BDE8704004F0A5B900008C
:10176000000000000C080020706F696E74730000A8
:101770006E6F5F616D700000CDCC4C3F00606A47BA
:101780000000204200005C430000A04100000C4328
:101790000000C8410000344363616C635F6F6B00FD
:1017A00072616E67650000002DE9F04105B2224CC0
:1017B00000EB40002DED048B04EB8000F0EE408A3E
:1017C00090ED120A0E4690ED118A30EE680AFFF78E
:1017D000DAFEB0EE409A25E005EB450004EB800709
:1017E00097ED120A30EE680AFFF7CDFEB4EEC90A93
:1017F000F1EE10FA03D297ED118AB0EE409A97ED10
:10180000120AB4EEE80AF1EE10FA09D805EB450029
:1018100004EB800090ED110ABDEC048BBDE8F08173
:10182000A81905B2002D03DBB4F9C404A842D3DC27
:10183000B0EE480AF0E700000C08002007484621F7
:101840009FED070A418480ED0A0A40F26D119FED79
:10185000050A818480ED0B0A704700000C08002007
:10186000000000000000F04210B5444C444AD4EDA2
:10187000020A10EE901A914202DC84ED020A0BE09B
:101880009FED401A60EE810A9FED3F1A40EE010A7B
:10189000C4ED020AB0EE600A84ED010A616B411AE0
:1018A000B1F5FA7F12D300EE901ADFED381AB8EED8
:1018B000601AC1EE210A94ED0C1A31EE401AC1EE05
:1018C000201AC4ED031A84ED0C0A60632178012903
:1018D00013D0022922D003293BD004294DD100F096
:1018E0003DFA2B496068884247DC2AA1052000F0B8
:1018F000EDF9BDE81040FFF77DBED4ED0C0A10EE07
:10190000100A284970EE600A884204DC10EE900A42
:10191000B0F17E5F31DD24A1022008E010EE100A54
:1019200025490844B0F5202F05D824A10320BDE89F
:10193000104000F0CBB910EE100A224988421CDD9D
:1019400021A1072000F0C2F9BDE81040002004F0FA
:10195000ABB8E068B0F17C5F0FDD1EA1042000F0A1
:10196000B5F90020A4F8C40494ED010A84ED0E0A30
:101970009FED1C0A84ED0F0A206410BD0C080020A6
:10198000CDCCCC3D9A99593F9A99193E00007A44A2
:101990000000204273746F705F70726573737572AC
:1019A000650000000000A041707265737375726578
:1019B0005F726973650000000000CCBC74617267DF
:1019C00065740000000057436F7665725F70726542
:1019D000737300006465666C6174655F7374617233
:1019E00074000000000000001C498A8C91ED0A1A66
:1019F00000EE102A4A8CF8EE400A00EE102AB8EEEB
:101A0000400A30EEC00AD1ED0B0A10EE101A70EE4B
:101A1000C10A11F1814F08D210EE101AB1F17E5FA8
:101A200003DA9FED0F0ADFED0F0A01EE902AB8EE00
:101A3000612A01EE900AF8EE611A71EEC21A61EEA7
:101A4000A00AC0EE801A31EE810AB5EEC00AF1EEAE
:101A500010FA01D29FED040A704700000C08002024
:101A600000F07F450000C84200000000014890EDF2
:101A7000060A70470C080020054890ED030AB5EEF1
:101A8000C00AF1EE10FA01DC9FED020A7047000077
:101A90000C080020000000000148007F7047000093
:101AA0000C0800201248017807291ED2DFE801F057
:101AB0000406080A0C191B000EA0704710A07047FE
:101AC00014A0704717A07047C068B0F1804F01DACA
:101AD0001DA070472049884201DD20A0704723A047
:101AE000704725A0704727A0704728A070470000C6
:101AF0000C080020507265737320535441525400F7
:101B0000496E666C617465206D616E75616C6C798F
:101B1000000000004B65657020696E666C61746939
:101B20006E67000053746F7020696E666C61746933
:101B30006E6720616E64206465666C6174652073F5
:101B40006C6F776C790000004465666C6174652089
:101B50006661737465720000000060404465666CE5
:101B600061746520736C6F7765720000476F6F64F6
:101B7000207370656564000043616C63756C61740B
:101B8000696E6700446F6E65000000004D6561730B
:101B9000757265206661696C65640000014890EDAE
:101BA000010A70470C080020014890ED050A7047B3
:101BB0000C08002001480078704700000C08002045
:101BC0000148007800F088B80C08002010B500F03B
:101BD0000BF8BDE81040FFF731BE00000148407F20
:101BE000704700000C0800202DE9F041154C2DED48
:101BF000028B207808B1012700E00027668CA58CB5
:101C000094ED0A8AD4ED0B8A4FF499610D48FEF7E2
:101C100099FB002020706684A58484ED0A8AC4EDB7
:101C20000B8AAE4201D1FFF709FE002F06D0BDECB2
:101C3000028B0020BDE8F04103F036BFBDEC028B03
:101C4000BDE8F0810C08002010B5FFF7CDFF0120A2
:101C500003F02AFF06A1012000F038F800F006FF8B
:101C60000549486391ED010A81ED0C0A10BD0000A1
:101C700073746172740000000C08002030B591B0DC
:101C800000F0F4FE104C05462178002919D00629F1
:101C900017D0072915D0684603F01AFE94F82000E3
:101CA00020B1BDF80600E18B88420AD0BDF80600DD
:101CB000E083012184F82010FFF796FE2846FFF705
:101CC000D3FD11B030BD00000C08002001490870A0
:101CD000704700000C080020072813D2DFE800F04E
:101CE0000406080A0C0E100007A0704708A07047F1
:101CF0000BA070470DA0704710A0704712A070474E
:101D000013A0704714A0704749444C4500000000E0
:101D1000574149545F494E464C415445000000002C
:101D2000494E464C4154494E4700000052454144FB
:101D3000595F4445464C4154450000004445464CDB
:101D40004154494E4700000043414C43000000000D
:101D5000444F4E45000000004552520070B5174CEC
:101D6000DFED170A05462DED028BF0EE408A94ED6B
:101D70000E0A20EE200ADFED130A08EEA00A84ED19
:101D80000E0A38EEC00AFFF7FEFBD4ED0F0AB0EEE4
:101D9000408AF4EEC80AF1EE10FA09DD10EE901A4E
:101DA000B1F17C5F04DD2846B0EE680AFFF7F4FB72
:101DB00084ED0F8ABDEC028B70BD00000C08002082
:101DC00048E17A3F0AD7A33CFEE70000254A10B459
:101DD000136823F001031360234A1368C3F30B1C39
:101DE0000123ACF54064243C07D01268C2F30B1207
:101DF000A2F5406CBCF1270C1AD11C4A1268BAB982
:101E00001B4AD2F800C0CCF30B0CBCF58A6F19D07A
:101E1000D2F800C0CCF30B0CACF58064833C11D03D
:101E20001268C2F30B02A2F5806CBCF1850C09D0DC
:101E3000104A93609368002BFCD1106010688842B0
:101E40000DD009E00C4A13601368002BFCD10B4A3B
:101E500010601068884202D010BC0020704710BC8F
:101E600001207047002000E000ED00E0002004E0C9
:101E70000010005C00300240084C0258004C025830
:101E8000014800F065BB00003C0D002070470820B1
:101E900000F0B4BC08B572B60026084C084D02210B
:101EA000204600F0D6FD0121204600F0D2FD00962C
:101EB0000098401C0090A842FAD3F0E700040240CA
:101EC00080841E00F0B5D1E907354C6A0A68C2B1BA
:101ED00002682B4322F4F842144323430360D1E900
:101EE00001231A43D1E9033423431A434B69896917
:101EF0001A430A4341686FF30E010A43426000200F
:101F0000F0BDD1E901263243D1E903673E433243B4
:101F10004E69896932430A431A432A4301682243BE
:101F20006FF30E010A430260E9E7426943F6FE736C
:101F30009A4342EA410141610020704770B514465E
:101F40000546D1E9000210438A686FF01F03C96893
:101F500003EB421242EA4121084329696FF315015C
:101F60000843286100F082FD064609E0601C07D0A6
:101F700024B100F07BFD801BA04201D9032070BD7D
:101F8000A8698006F2D4002070BD0000F0B56FF0A3
:101F90000F058C8A2E014FEA054ECB682F034FF0B8
:101FA0007F4C0EEB04540AB31A03A2F580528368E7
:101FB00022431D4C23401A438260D1E9002305EBE4
:101FC0000313521E1A438B6806EB03231A430B8A32
:101FD000097E07EB03431A430CEB01610A43C16816
:101FE00001F070410A43C2600020F0BDD1E9002E2B
:101FF00005EB0E15521E2A438D6806EB05252A4374
:102000000A4D05EB03331A430B8A097E07EB0343A2
:102010001A4322430CEB01610A43816801F07041CD
:102020000A438260E0E70000FF0F0FFF00F0FFFFB0
:1020300078B50024009490F83C20012A19D00122A0
:1020400080F83C200A6807230568092A13D9EE683E
:102050000A3A02EB420293409E43EE600B788A6894
:102060000A3B03EB43039A400368DD682A43DA60C6
:1020700010E0022078BD2E6902EB420293409E439D
:102080002E610B788A6803EB43039A4003681D694D
:102090002A431A614A681F23072A13D205686E6B08
:1020A000521E02EB820293409E436E630A8893B2F3
:1020B0000A79521E02EB820293400268556B2B4351
:1020C000536327E005680D2A12D22E6BD21F02EB54
:1020D000820293409E432E630B790A88DB1F92B2E3
:1020E00003EB83039A4003681D6B2A431A6311E0D4
:1020F000EE6A0D3A02EB820293409E43EE620B7948
:102100000A880D3B92B203EB83039A400368DD6AB1
:102110002A43DA621B4B0568194A9D420AD10D68B1
:10212000122D07D1556825F400055560556845F412
:102130008005556005689D421DD1134D0B68AB426B
:1021400001D0112B17D1536823F4800353605368D7
:1021500043F4000353600968A9420CD10B490C4AAF
:102160000968B1FBF2F101EB8101490000E0491E71
:1021700000910029FBD180F83C40002078BD000090
:1021800000230140002001401200001088000020C0
:1021900040420F00406C70470068C06C704770B5DB
:1021A00004004FF0000503D0206C002610B107E0BA
:1021B000012070BD204600F01DF8666484F83C6084
:1021C000206CC00610D4206C20F4885040F002002F
:1021D00020642046FEF7FEFB6664206C20F00200BF
:1021E00040F00100206400E0012584F83C602846AE
:1021F00070BD000030B587B0044614216846FEF774
:10220000A1F81949206888422CD118480024016897
:1022100041F480710160006800F4807005901348FB
:102220001438016841F004010160016801F0040103
:102230000591016841F0010101600068032500F08B
:10224000010005900220CDE9000569460294084886
:1022500000F0E0FA2220CDE9000569460294054825
:1022600000F0D8FA07B030BD0020014044380240E9
:1022700000080240000002402DE9F04104460068D9
:102280000D4681684FF0000749050BD58068C005F1
:1022900008D5206C40F02000206484F83C700120B8
:1022A000BDE8F08100F0E2FB064613E0681C11D0A7
:1022B00025B100F0DBFB801BA8420BD92068006829
:1022C000800707D4206C40F00400206484F83C7040
:1022D0000320E5E7206800688007E7D521686FF0F4
:1022E00012000860206C40F400702064206881684F
:1022F00011F0405F13D1217E89B9C16A11F4700FCA
:1023000002D0806840050AD4206C20F480702064DC
:10231000206CC00403D4206C40F001002064002035
:10232000BEE7000018B50021009190F83C20012A7A
:1023300007D0012280F83C2002689368DB0702D0B6
:1023400011E0022018BD936843F0010393602E4A08
:102350002E4B1268B2FBF3F202EB420200E0521E77
:102360000092002AFBD102689368DB0742D0036C1D
:1023700040F20164A34343F48073036453685B0534
:1023800005D5036C23F4005343F480530364036CBA
:10239000DB0404D5436C23F00603436400E041648E
:1023A00080F83C101A496FF02203136049680068F6
:1023B000CA06184906D0884224D1816811F0405FCE
:1023C00013D01FE08842F8D0134A904203D1D1F8CD
:1023D0000423D206F1D0114A904213D1D1F804134C
:1023E00001F01F011029E8D30CE0816841F0804121
:1023F000816007E0016C41F010010164416C41F023
:1024000001014164002018BD8800002040420F00F7
:102410000023014000200140002101400022014032
:1024200090F83C1001290CD0012180F83C10016883
:102430008A6822F001028A6001688968C90702D0AF
:1024400007E002207047016C21F4885141F001013E
:102450000164002180F83C100846704710B5040064
:1024600002D0607910B106E0012010BD002020717B
:10247000204600F005F801206071002010BD00002A
:1024800008B500680649884208D10648016841F449
:1024900080510160006800F48050009008BD000089
:1024A00000300240303802407047000070B590F8AC
:1024B0003820012A24D0012680F83860022280F8D2
:1024C000392000EB0112148CD369183243EA044519
:1024D0001E4C0A2B16D0092B14D0137B45EA03633C
:1024E0000029016813D0CD69A5431D43CD61036860
:1024F0001168196151680A291BD0092919D01DE0FA
:10250000022070BDD36803F07F432B43E8E74D6A98
:10251000A5431D434D6203681168996151680A29FA
:1025200001D009290AD1D168026821F07F41916266
:1025300004E0D168026821F07F41116280F83960BF
:10254000002180F83810084670BD00000F0003FF1E
:102550002DE9F0470446006846680568F1074FF02A
:1025600004084FF000074FF0010914D0E90512D517
:10257000016821F480710160E06B40F00100E063CC
:102580002168C1F8089084F8398084F8387061694E
:1025900009B120468847B00615D5A80413D5206890
:1025A000016821F400510160216820208860E06BFF
:1025B00040F00200E06384F8398084F83870616983
:1025C00009B120468847300715D5280513D520685E
:1025D000016821F400610160216808208860E06BD7
:1025E00040F00400E06384F8398084F83870616951
:1025F00009B12046884770070CD568050AD52068C0
:10260000016821F4806101602168C1F808802046DA
:1026100000F05AF8B00713D5A80511D52068016855
:1026200021F400710160216802208860E06BE063A2
:1026300084F8399084F83870216909B120468847B8
:10264000F00612D5E80410D52068016821F4805105
:102650000160216810208860E06BE06384F83990A5
:1026600084F838702046FFF71FFFBDE8F08770B58B
:10267000040004D094F83900002510B106E00120D0
:1026800070BD84F83850204600F020F8022084F80D
:10269000390020680168626821F44031114301600B
:1026A0002068416BA26821F0070111434163206853
:1026B000016CE2686FF30D0111430164E5630120D1
:1026C00084F83900002070BD7047000008B500682C
:1026D0000B49884212D10B48016841F400010160A6
:1026E0000068002200F40000009009215A2000F048
:1026F00039FFBDE808405A2000F027BF08BD0000A0
:1027000000B002403038024070B5044600F0AEF927
:102710000546601C02D004480078044400F0A6F985
:10272000401BA042FAD370BD7C000020F0B587B0FA
:1027300014216846FDF706FE25480168002944D1AA
:102740000121016023480024016841F0010101607A
:102750000068022500F0010005904FF63F00CDE92A
:10276000000502AA03260C2782E8D00069461A4811
:1027700000F050F80D20CDE9000502AA694682E874
:10278000D000164800F046F848F23710CDE90005B1
:1027900002AA694682E8D000114800F03BF84FF6E3
:1027A0008370CDE9000502AA694682E8D0000D4891
:1027B00000F030F84CF20370CDE9000502AA69463A
:1027C00082E8D000084800F025F807B0F0BD00000E
:1027D0007400002038380240001402400008024013
:1027E0000018024000100240000C0240082802D1EC
:1027F00001490120087070478C000020044910B581
:102800000A68024202D00860FFF7F0FF10BD000026
:10281000143C01402DE9F84FDFF8F8A10022012413
:1028200003254FF00F090AF1040BAAF1040E00BFB3
:102830000B6804FA02F63340B34270D10F7907F007
:102840000307012F01D0022F16D187684FEA4208F3
:1028500005FA08FC27EA0C07D1F80CC00CFA08FCB2
:102860004CEA070CC0F808C04768B7430E79C6F3B6
:10287000001696403E4346600E79F643B6070AD0EE
:10288000C7684FEA420C05FA0CF6B7438E6806FAA1
:102890000CF63E43C6600E7906F00306022E10D1F8
:1028A000D60800EB8608D8F8206057074FEAD76CA7
:1028B00009FA0CF7BE430F6907FA0CF73743C8F85B
:1028C000207006684FEA420C05FA0CF7BE430F79F8
:1028D00007F0030707FA0CF7374307604E6816F452
:1028E000403F1CD04C4E376847F48047376036680D
:1028F00022F0030706F480460096484E07EB060CCC
:10290000DCF8086897073F0F09FA07F826EA080677
:10291000DFF80C81404503D14FF0000841E072E040
:10292000DFF80081404502D14FF0010839E0DFF8BF
:10293000F880404502D14FF0020832E0DFF8EC8029
:10294000404502D14FF003082BE0DFF8E48040451A
:1029500002D14FF0040824E0DFF8D880404502D1CE
:102960004FF005081DE0DFF8D080404502D14FF060
:10297000060816E0DFF8C480404502D14FF0070892
:102980000FE0DFF8BC80404502D14FF0080808E0B6
:10299000DFF8B080404502D14FF0090801E04FF068
:1029A0000A0808FA07F848EA0608CCF80888DAF8AE
:1029B00000605746D1F804C09E435FEACC2C00D596
:1029C0001E433E60DBF800605F46D1F804C09E43C2
:1029D0005FEA8C2C00D51E433E60DEF8006077462F
:1029E000D1F804C09E435FEA8C3C00D51E433E6094
:1029F000084F083F3E68D1F804C09E435FEACC3CD4
:102A000000D51E433E60521C102AFFF411AFBDE8F2
:102A1000F88F0000083C014044380240003001407B
:102A2000000002400004024000080240000C024086
:102A3000001002400014024000180240001C024036
:102A400000200240002402400069084000D001201C
:102A50007047426921EA02030A4043EA0241816168
:102A600070470AB1816170470904FBE7014880683B
:102A7000704700007C00002090F83D20202A01D003
:102A800002207047242280F83D200268136823F05A
:102A9000010313600268536A23F010035362026853
:102AA000536A0B43536201680A6842F001020A60EC
:102AB000202180F83D100020704790F83D20202A0A
:102AC00001D002207047242280F83D20026813685C
:102AD00023F00103136003685A6A22F00F020A43CD
:102AE00091B2596201680A6842F001020A6020212D
:102AF00080F83D100020704770B5040025D094F890
:102B00003D00002520B984F83C50204600F046FAEC
:102B1000242084F83D002068016821F00101016053
:102B20002068016841F4004101602068016821F4D7
:102B30000041016000F070FF4D4A6168914201D888
:102B40004C4900E04C49884201D2012070BD4B49FC
:102B50002368B0FBF1F15E6826F03F060E435E602D
:102B60006368934206D94FF4967359434FF47A73CE
:102B7000B1FBF3F12368491C1E6A26F03F0631437E
:102B800019626168914210D84900401EB0FBF1F211
:102B9000521CC2F30B02042A01D2042022E0B0FB33
:102BA000F1F0401CC0F30B001CE0A268F2B301EB93
:102BB000C10303EB0116431EB3FBF6F35B1C43F4A6
:102BC00080431B0549D092B301EBC10202EB011116
:102BD000401EB0FBF1F0401CC0F30B0040F48040FD
:102BE00040F400402168CA694CF6FF739A431043D1
:102BF000C861D4E9071001432068026822F0C002CE
:102C000011430160D4E9030101432068826848F25E
:102C1000FF339A4311438160D4E9050108432168D9
:102C2000CA6822F0FF021043C86001E00EE016E01F
:102C30002068016841F0010101602564202084F8CA
:102C40003D00256384F83E50002070BD01EB410635
:102C5000431EB3FBF6F35B1CB3E70120C2E701EBB5
:102C60004101401EB0FBF1F0401CC0F30B00B7E780
:102C7000A086010080841E0000093D0040420F0034
:102C80002DE9F84F1F4690468A460446DDF8289005
:102C9000FFF7ECFE054694F83D00202871D119237A
:102CA000012270492046009502F038F80028F5D13D
:102CB00094F83C00012864D0012084F83C0020688E
:102CC0000168C90703D1016841F001010160206872
:102CD000016821F400610160222084F83D00102089
:102CE00084F83E0000262664C4F824806785608D41
:102CF00020855D48E0622B464A465146204601F059
:102D00001DFF002876D1208D584F68B1012814D0BE
:102D100002282068016816D041F4806101602068B3
:102D20004169806900908EE0206841698169009165
:102D3000016841F40071016085E02068016821F4B8
:102D400080610160F0E721F4806101602068016822
:102D500041F40061E2E7032846D801280AD002289E
:102D600010D04B46002239462046009501F0D6FF90
:102D7000C8BB25E02A464946204602F075F890BBBC
:102D800054E06CE04B46002239462046009501F0A5
:102D9000C5FF40BB2068016841F4007101602068F4
:102DA0000069616A0870606A401C6062218D491E7A
:102DB0002185618D491E618521680969017039E0AD
:102DC0002068016821F48061016020680069616AFF
:102DD0000870606A401C6062208D401E2085608DF6
:102DE000401E6085CEE705E02A464946204602F0AF
:102DF0003BF810B10120BDE8F88F20680069616AD6
:102E00000870606A401C6062208D401E81B221857E
:102E1000608D401E608520684269D243520712D4FB
:102E2000032903D1016821F48061016020680069F1
:102E3000616A0870606A401C6062208D401E2085B7
:102E4000608D401E6085208D002884D1202084F86C
:102E50003D0084F83E6084F83C600020CBE702200F
:102E6000C9E70000020010000000FFFF040001009D
:102E70002DE9F84F1F4690468A460446DDF8289013
:102E8000FFF7F4FD054694F83D0020287FD1192373
:102E9000012240492046009501F040FF002876D1EC
:102EA00094F83C00012872D0012084F83C0020688E
:102EB0000168C90703D1016841F001010160206880
:102EC000016821F400610160212084F83D00102098
:102ED00084F83E0000262664C4F824806785608D4F
:102EE00020852D48E0622B464A465146204601F097
:102EF0009BFE90B9206841698069009036E02A46BF
:102F00004946204601F0E8FF50B1206C042804D166
:102F10002068016841F4007101600120BDE8F88F6C
:102F2000606A216800780861606A401C6062618D97
:102F3000491E6185218D491E89B221852268536908
:102F4000DB435B070BD451B100781061606A401C11
:102F50006062608D401E6085208D401E20852A465F
:102F60004946204601F0AEFE0028CED1208D002833
:102F7000C5D154F83D0B016841F400710160202077
:102F800004F81E09E67766770020C7E7FFE702200E
:102F9000C4E70000020010000000FFFF10B586B07B
:102FA000044614216846FDF7CDF91349206888428C
:102FB00020D112480021026842F0800202600068BD
:102FC00000F080000590302000901220CDE9010132
:102FD000032003900420049069460948FFF71AFC77
:102FE00006481030016841F480010160006800F477
:102FF0008000059006B010BD0058004030380240F7
:10300000001C0240024881680278114481607047C8
:103010007C0000200B4810B5016841F4007101608C
:10302000016841F480610160016841F480710160D0
:10303000032000F0B7FA0F2000F006F800F058FA6D
:10304000002010BD003C024030B505461F4887B047
:103050000024016841F020010160006806A900F029
:103060002000009001A800F0B7FC0498A8B100F07F
:10307000D3FC40001649174AB0FBF1F11648491E2F
:10308000026040F2E732C0E90324C0E90114846120
:1030900001F0ECF8040003D015E000F0BDFCE9E716
:1030A0000D4801F025F904000DD1372000F04DFA4C
:1030B000102D07D200222946372000F053FA074886
:1030C000056000E0012407B0204630BD40380240D2
:1030D00040420F00001400405C0F002080000020E0
:1030E0002DE9F041044690F8A00016460F4601284D
:1030F0001DD0012584F8A050022084F8A10006EB21
:10310000860000EBC60004EB800034223830FDF767
:1031100000F932463946204601F010FF206845622A
:1031200084F8A150002084F8A000BDE8F0810220BE
:10313000FBE770472DE9F04104460068856B466B5C
:1031400069074FF004084FF0000715D5710713D534
:10315000416B21F0040141632168C1F83C80D4F83F
:10316000A41041F00101C4F8A41084F8A18084F8EF
:10317000A0702046FFF7DDFFA80716D5B00714D5CD
:103180002068416B21F00201416321680220C8637D
:10319000D4F8A40040F00200C4F8A40084F8A18090
:1031A00084F8A0702046FFF7C4FF05EA0600C007B8
:1031B0004FF001080ED02068416B21F001014163FE
:1031C0002168C1F83C8084F8A18084F8A070204672
:1031D00000F074F8280710D530070ED52068416B31
:1031E00021F00801416321680820C86384F8A180A8
:1031F00084F8A070204600F059F9BDE8F08170B560
:10320000040004D094F8A100002510B106E00120CC
:1032100070BD84F8A050204600F080F8022084F8A9
:10322000A1002068816921F070418161D4E9010128
:103230000843D4E903121143084321688A69104303
:103240008861A08AA16941EA004120688160A08B61
:10325000216A41EA00412068C160A08CA16A41EA6C
:10326000004120680161A08D216B41EA0041206886
:10327000416194F835002168030294F83600CA6A67
:1032800002F07F42CA622168CA6A94F8346043EA55
:10329000004032430243CA622068416B41F006019C
:1032A00041632068816941F001018161C4F8A45043
:1032B000012084F8A100002070BD000010B5144C5E
:1032C0002168002922D013490B68134A11888B42C8
:1032D00011D1518800F0AEF8206810F86A1F491C1F
:1032E000017009F027F920680DF0CAFCBDE8104014
:1032F00000200FF039BB00F09DF820680168096AD2
:103300008847BDE8104000200FF030BB10BD000022
:10331000B40200204068014020010020F0B593B0C5
:10332000044614216846FDF70DF8302105A8FDF785
:1033300009F83A49206888426ED108200590002497
:1033400054200E94022509900B9505A800F080F9F1
:1033500008B1FEF79FFD3248016841F080610160CD
:10336000006800F0806011902D481438016841F425
:1033700080710160016801F480711191016841F070
:1033800020010160016801F020011191016841F004
:1033900080010160016801F080011191016841F034
:1033A00040010160006802AA00F04000119040F264
:1033B000F760CDE9000503260E2782E8D0006946B4
:1033C0001848FFF727FA4FF48060CDE9000502AAFC
:1033D000694682E8D0001448FFF71CFA4FF47E409B
:1033E000CDE9000502AA694682E8D0000F48FFF740
:1033F00011FA4FF40C60CDE9000502AA694682E893
:10340000D0000B48FFF706FA00220921582000F0EF
:10341000A9F8582000F099F813B0F0BD00680140F9
:10342000443802400020024000140240001C0240C8
:103430000018024010B590F8A020012A17D00122F0
:1034400000F8A02F0223437050F8A03C5C6B24F0DE
:1034500001045C63074B196050F8A01C4B6B43F0F0
:1034600001034B63427000210170084610BD022029
:1034700010BD00004068014010B590F8A020012A5E
:1034800012D0012200F8A02F0223437050F8A03C74
:103490005C6B44F008045C6350F8A03C59624270D5
:1034A00000210170084610BD022010BD704770B5A4
:1034B000044690F8A0000B46012816D0012584F898
:1034C000A050022084F8A10002EB820000EBC200B1
:1034D00004EB80012046CB65383101F02FFD84F8E4
:1034E000A150002084F8A00070BD022070BD000033
:1034F0000C4882B0016841F480410160006800F42A
:10350000804000900748001F016841F08051016031
:103510000068002200F0805000900F21901E02B041
:1035200000F020B84438024000280DDB00F01F02F4
:10353000012191404009800000F1E020C0F8801195
:10354000BFF34F8FBFF36F8F7047002809DB00F088
:103550001F02012191404009800000F1E020C0F8E5
:1035600000117047F0B40E4B1B680C46C3F30223E6
:10357000C3F10705042D00D90425191D072901D21F
:10358000002300E0DB1E012606FA05F1491E21405A
:1035900099409E40761E16403143F0BC1FF0AEBDF0
:1035A0000CED00E0064900F0070208684FF6FF0343
:1035B000184040EA0220034A1043086070470000A8
:1035C0000CED00E00000FA052DE9F843174801680A
:1035D00041F0805101600068154F00F080500126D5
:1035E00000903E64FFF742FA05464FF47A78114C9A
:1035F00005E000BFFFF73AFA401B40450DD8606870
:10360000C003F7D57E64FFF731FA0546464607E06A
:10361000FFF72CFA401BB04202D90320BDE8F88323
:1036200060688003F4D50020F8E7000040380240CD
:1036300000000E4200700040034908B501200862F6
:1036400002480068009008BD00000E420070004073
:103650002DE9F84F04460068DFF824A2894F8A4D0F
:10366000C1074FF001084FF0000603D1810701D4D4
:10367000400648D5CAF86860FFF7F8F9814605E0CA
:10368000FFF7F4F9A0EB090002287DD828680001B3
:10369000F6D42078C1077D4805D06168227A890177
:1036A00041EA027101602178890711D501686268D9
:1036B000237B9201C1F3027142EA036242EA017183
:1036C00001603968E26921F01F01521E114339601F
:1036D0002178490608D56168227B890141EA0261A7
:1036E000227A41EA02710160CAF86880FFF7BEF9E8
:1036F000814605E0FFF7BAF9A0EB0900022843D89C
:1037000028680001F6D52068410701D400074ED58E
:10371000CAF87060FFF7AAF9814605E0FFF7A6F93D
:10372000A0EB090002282FD82868C0438000F5D5F7
:1037300020784107564814D501682269237D9201FB
:10374000C1F3027142EA036242EA01710160396821
:10375000226A6FF0FF0321F4F85103EB02221143B8
:1037600039602178090712D501682269C1F3036124
:10377000920142EA0161227E41EA027101603868E9
:10378000616A20F4403000E051E008433860CAF834
:103790007080FFF76BF9074605E000BFFFF766F999
:1037A000C01B022843D82868C0438000F6D4207884
:1037B000800653D534484030016841F080510160A3
:1037C0000068344D00F080500090286840F480700C
:1037D0002860FFF74BF9074605E000BFFFF746F901
:1037E000C01B022823D82868C005F7D5274D143DF3
:1037F000286810F4407020D0218D01F4407181427E
:103800001BD0286820F440712348C0F8008006606F
:1038100029602868C00710D0FFF728F9064641F252
:10382000883707E0FFF722F9801BB84202D903204E
:10383000BDE8F88F28688007F4D5A16A1248C1F363
:1038400001220830032A13D0016821F4F811016025
:103850002868218DC1F30B01084328602078C00639
:1038600004D50E4994F82C00C1F8E0010020DFE7F0
:1038700002680B4B22F4F81219400A430260E7E792
:10388000000047428C380240003802408438024031
:103890008838024000700040400E47420010474206
:1038A000FFFCFF0F2DE9F0470E46050065D0DFF85D
:1038B0001481D8F80000F7B200F00F00B04207D230
:1038C00088F80070D8F8000000F00F00B04254D122
:1038D00028683D4C810712D5400703D5206840F485
:1038E000E05020602878000703D5206840F460404D
:1038F00020602068A96820F0F00008432060287844
:10390000C0072DD0304968680839012812D0022834
:1039100013D0032811D00968890700292DDA2168FE
:1039200021F0030101432160FFF7A0F8814641F235
:10393000883A0EE009688903EFE709688901ECE736
:10394000FFF794F8A0EB0901514502D90320BDE827
:10395000F0872068696800F00C00B0EB810FEFD1B0
:10396000D8F80010404601F00F01B14207D90770A6
:10397000006800F00F00B04201D00120E7E728788E
:10398000400705D52068E96820F4E050084320602E
:103990002878000706D52068296920F4604040EAAD
:1039A000C100206000F058F82168084AC1F30311F3
:1039B000515CC8400649086006480068FFF744FBB0
:1039C0000020C4E7003C0240083802409486020808
:1039D00088000020800000200F2202600C4A13683B
:1039E00003F003034360136803F0F003836013687C
:1039F00003F4E053C36012684FF4E05303EAD202C9
:103A000002610448006800F00F0008607047000081
:103A100008380240003C0240044805490068096833
:103A2000044AC1F38221515CC840704788000020DD
:103A300008380240A486020804480549006809685D
:103A4000044AC1F34231515CC840704788000020ED
:103A500008380240A4860208154810B5006810F026
:103A60000C02144813D01449042A0FD0082A0ED18E
:103A70000F4C241F2268236802F03F025B0207D527
:103A80002068C0F38810A0FB010106E0084610BDC5
:103A90002168C1F38811A1FB00010023FCF708FC99
:103AA0002168C1F30141491C4900B0FBF1F010BD90
:103AB000083802400024F40040787D012DE9F84FD9
:103AC00004006ED02078DFF84C93C007A9F10405FC
:103AD0004AD009F104000168C1F38101012908D02D
:103AE0000068C0F3810002280AD1D9F80000400222
:103AF00006D52868800337D560680028E1D033E018
:103B00006068B0F5803F10D0B0F5A02F286810D0C5
:103B100020F480302860286820F4802028606068C5
:103B2000A8B1FEF7A3FF06460DE0286840F48030F8
:103B3000F4E740F480202860F7E700BFFEF796FF27
:103B4000801B642873D828688003F7D50CE0FEF743
:103B50008DFF064605E000BFFEF788FF801B642846
:103B6000F0D828688003F7D42078DFF8AC8280078B
:103B70004FF0000A3ED5A748001D016811F00C0F58
:103B800008D00068C0F3810002280BD1D9F80000EA
:103B9000400207D42868800716D5E068012800D1C4
:103BA00012E033E1E068B8B10120C8F80000FEF788
:103BB0005DFF064605E000BFFEF758FF801B0228A8
:103BC000C0D828688007F7D52868216920F0F80058
:103BD00040EAC10028600DE0C8F800A0FEF746FFEB
:103BE000064604E0FEF742FF801B02281FD8286823
:103BF0008007F7D42078000722D5864F874861696F
:103C0000703771B101210160FEF730FF064604E014
:103C1000FEF72CFF801B022809D838688007F7D5EB
:103C20000EE0C0F800A0FEF721FF064605E082E0A6
:103C3000FEF71CFF801B02287DD838688007F7D468
:103C40002078400768D5DFF8CCB100270BF13C0B9A
:103C5000DBF80000C0000BD4DBF8001041F080510D
:103C6000CBF80010DBF80000012700F08050009036
:103C70006B4E3068C00510D4306840F480703060FE
:103C8000FEF7F4FE009005E0FEF7F0FE0099401A02
:103C9000022850D83068C005F6D55E4EA0686C3654
:103CA00001280FD00528306810D020F001003060C6
:103CB000306820F004003060A068B8B1FEF7D6FE8E
:103CC00000900FE0306840F00100F4E740F004009D
:103CD0003060F7E7FEF7CAFE0099411A41F28830DA
:103CE000814266D830688007F4D50EE0FEF7BEFE4C
:103CF000009007E0FEF7BAFE0099411A41F28830C1
:103D0000814256D830688007F4D42FB1DBF8001018
:103D100021F08051CBF80010A069C8B33D49091DBE
:103D20000968C1F3810102294AD00228504607D010
:103D3000C8F8600000E03CE0FEF798FE04463BE077
:103D40004746C8F86000FEF791FE064605E000BF52
:103D5000FEF78CFE801B02282BD828688001F7D440
:103D6000D4E907010843A16A2E4A490802EB014140
:103D7000626A41EA8211084394F82C1040EA01611A
:103D8000C9F8001001203866FEF770FE044606E010
:103D90003EE000BFFEF76AFE001B022809D8286833
:103DA0008001F7D534E000BFFEF760FE001B02285B
:103DB00002D90320BDE8F88F28688001F4D427E0F9
:103DC0000128F7D0D9F80000E26900F4800191429F
:103DD0001CD1226A00F03F01914217D147F6C07111
:103DE000626A0140B1EB821F10D1A26A4FF0FF332B
:103DF00000F4403103EB5202B1EB024F06D194F8CC
:103E00002C1000F07060B0EB016F01D00120D1E701
:103E10000020CFE70438024000004742800E4742AE
:103E2000007000400000FFFF10B500680B464168BD
:103E30000D480140080CD870C1F304245C7001F0F7
:103E40003F049C70C1F34231197052B901F0E8FB94
:103E5000D870587801F0E4FB5870987801F0E0FBD6
:103E60009870002010BD00003FFFFF0010B50B460A
:103E70000168896A596001680969C1F30E01996096
:103E8000006801680D480140C1F305401870C1F396
:103E900006245C7001F07F049C70890DD97052B9C2
:103EA00001F0BEFB1870587801F0BAFB5870987892
:103EB00001F0B6FB9870002010BD00007F7F7F00EE
:103EC00010B5040002D0607F10B106E0012010BDE3
:103ED00000202077204600F041F80220607720681B
:103EE000C168C943C90632D5CA214162216853203D
:103EF0004862204601F0A8FB20BB20688168164A72
:103F0000114081602168886862681043D4E9042305
:103F10001A43104388602168E068086120680169DD
:103F2000228941EA02410161204601F0B1FB48B912
:103F300021680A6C22F480220A6421680A6CA36951
:103F40001A430A642268FF21516208B110BD0020A3
:103F50000121617710BD0000BFFF8FFF10B58CB04D
:103F6000044630216846FCF7EDF90949206888428B
:103F70000CD120200090C0000A906846FFF768FB33
:103F800008B1FDF787FF0349012008600CB010BDA0
:103F9000002800403C0E474270B50446007F0B46A7
:103FA000012819D00126267702206077B2B19878CF
:103FB000D97840EA014558781978000240EA413042
:103FC00005432168CA204862216853204862204680
:103FD00001F03AFBD0B122E0022070BD5878C10652
:103FE00003D500F0EF000A305870D87801F021FBBB
:103FF0000204587801F01DFB42EA0022987801F093
:1040000018FB0243187842EA4035DAE707480540D2
:1040100020684560204601F03BFB00B966772268C6
:10402000FF2151620021217770BD00003FFFFF009A
:104030002DE9F0410446007F0D46012823D04FF0C2
:10404000010884F81C8002206077206800278068BF
:104050004FEA4060D2B1002800DBEF70A8782978E1
:1040600040EA01466878E978000240EA8150064358
:104070002168CA204862216853204862204601F026
:10408000E3FAB8B12CE00220BDE8F081002800DBA3
:10409000EF70287801F0CDFA0204687801F0C9FACF
:1040A00042EA0022A87801F0C4FA0243E87842EA22
:1040B0008056DDE70D48064020680660206881686C
:1040C00021F480218160D5E90301084321688A68D1
:1040D00010438860204601F0DBFA08B984F81D809F
:1040E0002268FF2151622777CEE700007F7F7F00A3
:1040F00070B504460B482168C860FEF7B7FC05465A
:104100004FF47A7607E000BFFEF7B0FC401BB042E8
:1041100001D9032070BD2068C0688006F4D5002056
:1041200070BD00005F7F010070B50D46040003D034
:1041300094F82C0010B107E0012070BD002084F835
:104140002D00204600F011F8022084F82C00211DDB
:104150002068FDF7B7FED4E900022946FDF716FFF7
:10416000012084F82C00002070BDFEF7DFBA10B5E6
:10417000044690F82C00022804D094F82C00012862
:1041800001D0012010BD022084F82C002068FDF72A
:10419000CCFE012084F82C00002010BD70B5044630
:1041A00090F82C000D46022804D0012803D00528E1
:1041B00001D0012070BD022084F82C002068FDF79A
:1041C000BDFE2868022805D05FF0010084F82C00AD
:1041D000002070BD0520F9E77047704770B590F872
:1041E0003C20012A32D0012480F83C40022280F891
:1041F0003D2003685A689D6822F070060A683243C1
:104200005A60134B02689A4214D0B2F1804F11D019
:10421000104B9A420ED0104B9A420BD00F4B9A4241
:1042200008D00F4B9A4205D00E4B9A4202D00E4B4B
:104230009A4204D1496825F080031943916080F8BF
:104240003D40002180F83C10084670BD022070BD42
:10425000000001400004004000080040000C004045
:1042600000040140004001400018004010B5040067
:1042700003D094F83D0010B107E0012010BD0020EC
:1042800084F83C00204600F01FF8022084F83D002E
:10429000211D206802F050F9012084F8460084F8BE
:1042A0003E0084F83F0084F8400084F8410084F820
:1042B000420084F8430084F8440084F8450084F800
:1042C0003D00002010BD000008B500680649884286
:1042D00008D10648016841F002010160006800F061
:1042E0000200009008BD0000000401404438024074
:1042F00090F83D10012901D001207047022180F87B
:104300003D100168CA6842F00102CA6000681149A4
:10431000884214D0B0F1804F11D00F4988420ED09E
:104320000E4988420BD00E49884208D00D49884278
:1043300005D00D49884202D00C49884204D18168D9
:1043400001F00701062903D0016841F00101016075
:1043500000207047000001400004004000080040B9
:10436000000C0040000401400040014000180040E3
:1043700070B5044690F83C000025012817D00126AE
:1043800084F83C60022084F83D002068826822F0B6
:10439000770222F47F4282600868502838D00DDC12
:1043A00020284FD005DC90B3102811D14AE002201C
:1043B00070BD302846D040280AD13BE060282FD07D
:1043C00070280DD0B0F5805F03D0B0F5005F12D03B
:1043D000012584F83D60002084F83C00284670BD2B
:1043E000CB68D1E90121206802F01BF920688168BF
:1043F00041F0770109E0CB68D1E90121206802F0A2
:1044000010F92068816841F480418160E1E719E09A
:10441000CA684968206802F016F95021206806E051
:10442000CA684968206802F05FF96021206802F0DC
:1044300002F9CEE7CA684968206802F004F9402111
:104440002068F4E7226801461046F0E770B500687E
:104450002D49884257D181152C48FEF7F5FA2C4D8D
:104460002C4C002678B12868016A21F00A0101620B
:104470002868016A41F002010162286846622078DA
:1044800040F010003EE00021214800F071FA296858
:1044900080B20A6A22F00A020A6229680A6A0A627B
:1044A0002178CA062BD50A064FF4F9731ED5A0F25F
:1044B0002D129A4202D86068400808E0A0F27952B2
:1044C000B2F5C77F05D86068400840F000406060E2
:1044D00015E040F2E732A0F2D17090420FD260783E
:1044E000401C607001F0F000207008E0A0F58050E2
:1044F0006938984203D841F08000207066702078B7
:1045000020F01000207070BD00000140000002404B
:10451000D45A00205C0100202DE9F041054690F8B6
:104520003C0000260C46012810D0012085F83C00F4
:1045300072B1042A1CD0082A2CD00C2A50D0012693
:10454000002085F83C003046BDE8F0810220FBE702
:10455000D4E90012E368286802F086F828688169C7
:1045600021F00C01816128688169A26811430FE084
:10457000D4E90012E368286802F0C8F82868816965
:1045800021F44061816128688169A26841EA0221C1
:104590008161D5E72868D4E9002C277B036A016A8A
:1045A00021F480710162C16923F4206321F00301C9
:1045B00041EA0C0121F0F00C39074FF420674CEA76
:1045C000116107EA02221A43C16102622868C169C7
:1045D00021F00C01C1612868C169A26811432BE078
:1045E0002868D4E90021E768036AD0F820C02CF4D9
:1045F000805CC0F820C0D0F81CC023F420432CF409
:10460000407C4CEA012121F4704C4FF6FF7101EA25
:1046100007314FF4204741EA0C0107EA02321A43FE
:10462000C16102622868C16921F44061C1612868E2
:10463000C169A26841EA0221C16181E710B50400A5
:1046400003D094F83D0010B107E0012010BD002018
:1046500084F83C00204600F01FF8022084F83D005A
:10466000211D206801F068FF012084F8460084F8CD
:104670003E0084F83F0084F8400084F8410084F84C
:10468000420084F8430084F8440084F8450084F82C
:104690003D00002010BD000000B500681A4987B039
:1046A00088422FD11948016841F00101016000687A
:1046B00000F00100059015481430016841F0010137
:1046C00001600068012100F0010005904FF4807046
:1046D00000900220CDE90101CDE9030169460C48B3
:1046E000FEF798F8032201211920FEF73BFF19205D
:1046F000FEF72BFF022201211B20FEF733FF1B20B8
:10470000FEF723FF07B000BD000001403038024033
:104710000000024030B50446002551B104290DD0F7
:10472000082910D094F8410094F84520012811D1AF
:104730000EE094F83E0094F84220F7E794F83F002A
:1047400094F84320F2E794F8400094F84420EDE711
:10475000012A01D0012030BD022059B1042912D014
:10476000082919D084F8410084F845000C2944D068
:10477000012540E084F83E0084F842002068C268C9
:1047800042F0020210E084F83F0084F84300206801
:10479000C26842F0040207E084F8400084F8440054
:1047A0002068C26842F00802C2600122206801F05D
:1047B0002BFF14492068884214D0B0F1804F11D0EB
:1047C000114988420ED0114988420BD010498842C5
:1047D00008D01049884205D00F49884202D00F49BD
:1047E000884204D1816801F00701062903D00168DD
:1047F00041F001010160284630BD2068C26842F0E6
:104800001002D1E700000140000400400008004011
:10481000000C00400004014000400140001800402E
:104820002DE9F04104460068C66805694FF00007AD
:10483000A90713D5B10711D5F91E01610120207711
:10484000206880698007204602D0FFF7FFFD04E062
:1048500000F07EF8204600F07CF82777680716D530
:10486000700714D521686FF00400086102202077DA
:104870002068806910F4407F204602D0FFF7E6FDF3
:1048800004E000F065F8204600F063F82777280779
:1048900015D5300713D521686FF008000861042092
:1048A00020772068C0698007204602D0FFF7CEFD40
:1048B00004E000F04DF8204600F04BF82777E806BA
:1048C00016D5F00614D521686FF010000861082095
:1048D00020772068C06910F4407F204602D0FFF79F
:1048E000B5FD04E000F034F8204600F032F82777F8
:1048F000E80708D0F00706D021686FF001000861D2
:10490000204600F027F8280608D5300606D521688D
:104910006FF0800008612046FFF75EFC680608D54E
:10492000700606D521686FF040000861204600F04F
:1049300034F8A8060AD5B00608D521686FF0200023
:1049400008612046BDE8F041FFF747BCBDE8F081B3
:104950007047704710B5044600680449884201D189
:10496000FEF750FB204600F0CFFE10BD00140040C3
:104970000246002041B1042909D008290AD00C2997
:1049800001D11068006C70471068406B7047106868
:10499000806B70471068C06B7047704770B504003B
:1049A00004D094F84100002510B106E0012070BD4C
:1049B00084F84050204600F023F8242084F8410079
:1049C0002068C16821F40051C160204601F0EAFE70
:1049D0002068016921F4904101612068416921F05A
:1049E0002A0141612068C16841F40051C1606564D9
:1049F000202084F8410084F842006563002070BDE7
:104A000010B586B0044614216846FBF79BFC144998
:104A10002068884221D113480021026842F0100228
:104A20000260006800F0100005900E48143802681B
:104A300042F001020260006800F0010005904FF4AE
:104A4000C06000900220CDE90101032003900720FF
:104A5000049069460448FDF7DDFE06B010BD000075
:104A60000010014044380240000002402DE9F843A4
:104A7000044690F84100984616460D46202802D07C
:104A80000220BDE8F88385B17EB10020606421205A
:104A900084F84100FDF7EAFFA6848146E684A06819
:104AA0002027B0F5805F02D003E00120E9E720690C
:104AB00010B12E4600250EE000260CE08021204695
:104AC00001F0F6FEA8B9C6B116F8010B21684860DE
:104AD000E08C401EE084E08C4B464FF00002CDF8A5
:104AE00000800028EAD14FF04001204601F0E0FEAE
:104AF00040B184F841700320C3E735F8020BC0F3DE
:104B00000800E3E784F841700020BAE7FEE7016897
:104B10004A69D24352050FD46FF480624A61002182
:104B200040F8301F202242738173026942F0040270
:104B30000261017301207047002070472DE9F84F92
:104B40000446C06A1E4693460D4621680A6842F430
:104B500080620A60082807D0012805D010F5803F40
:104B600002D0206B112804D12068016841F48071C3
:104B700001604FF001195B4600224946204600962D
:104B800000F0CCF84FF4007840B120680068C00510
:104B900001D5C4F840800320BDE8F88F2069DFF814
:104BA00084A0B0F5804F0FD00620216800EAD51709
:104BB00047F0F000086133465A460AF106012046E4
:104BC00000F0F4F858BB03E0E8B240F001001CE04C
:104BD0002168E8B2086133465A465146204600F043
:104BE000E5F8E0B92068416981690091016841F404
:104BF000807101605B46002249462046009600F025
:104C00008DF80028C1D147F0F100216808613346D2
:104C10005A465146204600F0C9F80028BCD0012071
:104C2000BAE7000002000100F8B50446C06A1E465B
:104C30000D461746082807D0012805D010F5803FFB
:104C400002D0206B122804D12068016841F48071E1
:104C50000160134600224FF001112046009600F03B
:104C60005DF840B120680068C00502D54FF40070BF
:104C700020640320F8BD2069B0F5804F0ED00620D7
:104C8000216800EAD51040F0F000086133463A464A
:104C90000B49204600F08AF878B902E005F0FE00E2
:104CA00000E0E8B221680861054933463A46891FA9
:104CB000204600F07BF80028DCD00120F8BD000081
:104CC0000800010070B516460D4604461EE0204659
:104CD000FFF71DFF08B1012070BD681C16D0FDF75D
:104CE000C5FE801BA84200D885B920684069C04332
:104CF00040070BD5002044F8300F20216173A073CA
:104D0000216941F0200121612073E4E720684069B6
:104D1000C0434007DBD4002070BD00002DE9F04700
:104D2000984617460D460446C1F30746DDF8209025
:104D30002AE000BFB8F1FF3F26D0FDF797FEA0EBB9
:104D40000901414502D8B8F1000F1DD12068012E9C
:104D500016D0806925EA00000004000C12D0002063
:104D6000B84211D1002044F8300F20216173A073A4
:104D7000216941F02001216120730120BDE8F08705
:104D80004069E7E70120EBE72068012E0AD080693F
:104D900025EA00000004000C06D00020B842C9D06B
:104DA0000020EBE74069F3E70120F7E72DE9F04742
:104DB000984616460D4604464FF000094FF0200A6B
:104DC000C1F3074723E020684069C043400515D47C
:104DD0002068016841F40071016021686FF480600F
:104DE0004861C4F8309084F83DA084F83E90216C6E
:104DF00041F00401216484F83C9021E0701C06D04D
:104E0000FDF734FEA0EB0800B04203D816B1012F25
:104E10001FD021E02068012F15D0806925EA00000D
:104E20000004000C18D000BF44F8309F84F80DA097
:104E300084F80E90216941F02001216184F80C90E2
:104E40000120BDE8F087406925EA00000004000C5D
:104E5000EAD12068406901E02068806925EA000005
:104E60000004000CAFD1ECE72DE9F041002590469D
:104E70000E460446202728E04069C043C0060CD4F3
:104E800054F8301B6FF01000486144F810596777F0
:104E9000A577206A2062257714E0FDF7E7FDA0EBF7
:104EA0000800B04200D886B920684069C043400677
:104EB0000BD544F8305F6773A573206940F020007C
:104EC000206125730120BDE8F08120684169C94354
:104ED0004906D1D40020F6E770B516460D460446C3
:104EE0001EE02046FFF713FE08B1012070BD681CCC
:104EF00016D0FDF7BBFD801BA84200D885B92068FD
:104F00004069C04300060BD5002044F8300F202133
:104F10006173A073216941F0200121612073E4E7EE
:104F200020684069C0430006DBD4002070BD00004B
:104F30000148FEF7FFB80000040E0020F0B503683A
:104F40008C88DD68C5F30B452C442504882404EBCC
:104F5000C2141E5906F470461E5103680F68DE68BD
:104F6000C6F30B46761C3E442E431E5103688C89C3
:104F7000DD68C5F30A052C4425048C2404EBC21417
:104F80001E5906F470461E5103688F68DE68C6F32A
:104F90000A06761C3E442E431E519423046803EBFC
:104FA000C213E55825F00705E55005680C69EC507B
:104FB00091F831300C7E1E0291F8323091F8305069
:104FC0001B04354343EA04631D439C24036804EB3C
:104FD000C2141D519823046803EBC213E55825F051
:104FE000FF05E55005684C69EC50A023046803EB0D
:104FF000C213E55840F20776B543E550D1E90745BD
:105000002C430568EC50AC25046805EBC2154B6ACF
:1050100063510B698BB3012B32D0042B32D0022B9E
:1050200030D0032B2ED0072B2CD00123B0240568C1
:1050300004EBC2142E5906F0E0262E51D1E900658A
:10504000AD1B0E8D5D435E43ED1C45EA06430568CE
:105050002B51B423046803EBC213E5586FF30A0520
:10506000E5500468C96AE1500068842101EBC2116F
:10507000425842F001024250F0BDFFE70423D5E759
:105080000323D3E70223D1E71FB50021164800917F
:1050900001910291134A039102604FF48032C0E9FA
:1050A000012101240161047680F820100F4AC0E933
:1050B0000A21C461C16080F830104461FDF76FF8C7
:1050C00008B1FCF7E7FE0B20CDE9000407200290B1
:1050D00069460548FCF7ACFF002801D0FCF7DAFE72
:1050E0001FBD000000200140F40C00200100000F53
:1050F000074910B5054808600846FDF7AFF90028D4
:1051000003D0BDE81040FCF7C5BE10BD0030024022
:105110006C0000200F4810B50D49016000210222EB
:10512000C0E90112C160C0E90A1201634163FDF7E1
:105130009EFA08B1FCF7AEFE01210648FDF7B6F96C
:10514000002803D0BDE81040FCF7A4BE10BD00004D
:1051500000B002403C0D002030B587B01C216846ED
:10516000FBF7F0F81C4C1B48082120601022C4E912
:1051700003124022626100200125C4E901054FF4B9
:10518000C072C4E90620080220624000606240004C
:10519000A0620220CDE900010621029103910421C1
:1051A000CDE90410069069462046FEF7BDFF08B120
:1051B000FCF770FE4FF02040A560D0F8401121F0C0
:1051C0000301491CC0F84011034800F0BDFA07B0C4
:1051D00030BD0000400100A07C0D002010B5FBF7A1
:1051E000B1FEFBF78BFD1D481FF023FE1C4CA06198
:1051F0001A4810301FF01DFEE061184820301FF0E3
:1052000018FE164A2062183A042108201FF088FD73
:10521000124A6061CC3A002112481FF009FF0F4A80
:105220002060A83A002110481FF002FF0B4A60607E
:10523000843A00210D481FF0FBFE084AA060603A46
:1052400000210B481FF0F4FE044AE0603C3A0021C4
:1052500008481FF0EDFE206110BD000064860208C2
:10526000480000204164000843670008E564020824
:105270004D640008090D00082DE9F04786B014219F
:105280006846FBF75FF863480024016841F48071C9
:105290000160016801F480710591016841F0040129
:1052A0000160016801F004010591016841F02001ED
:1052B0000160016801F020010591016841F0800161
:1052C0000160016801F080010591016841F0010170
:1052D0000160016801F001010591016841F00201DE
:1052E0000160016801F002010591016841F040018F
:1052F0000160016801F040010591016841F0100171
:105300000160016801F010010591016841F0080198
:1053100001600068DFF8009100F0080005900022AD
:105320004FF484714846FDF79CFBDFF8F0A00022A3
:1053300003215046FDF795FBDFF8E4800022402171
:105340004046FDF78EFB012220215046FDF789FBE8
:1053500001254FF48070CDE90005CDE9025469467E
:105360004846FDF757FA68038DE831002D4F69462E
:105370003846FDF74FFACDE90054022669462A481F
:105380000296FDF747FA0C208DE831006946404649
:10539000FDF740FA30208DE8510069463846FDF7A8
:1053A00039FA23200090CDE9015469465046039410
:1053B000FDF730FA40201126CDE90006CDE9025470
:1053C00069464046FDF726FA8020CDE9000469468B
:1053D00040460294FDF71EFA0827CDE90254CDE9B4
:1053E000007669464846FDF715FA4FF40410009719
:1053F000CDE9010569465046FDF70CFA002205216A
:105400000920FEF7AFF80920FEF79FF806B0BDE8C7
:10541000F0870000303802400020024000040240C3
:10542000001C02400008024000000240144810B571
:10543000124901601349416000214FF480428160AC
:10544000C0E9031241618161C1610162FDF754FB52
:1054500008B1FCF71FFD00210948FDF70DFB08B15D
:10546000FCF718FD00210648FDF727FB002803D0B4
:10547000BDE81040FCF70EBD10BD00000058004014
:10548000B00D0020A086010030B58DB034216846F3
:10549000FAF758FF264825490024C0E90014846023
:1054A0001321C460C0E9044102259F21C0E90651CF
:1054B0001621016240F29F41416240F26E218162F9
:1054C00040F23F51C16240F27A21016380F83440DA
:1054D00080F8354080F83640FDF791FE08B1FCF7C2
:1054E000D9FC4FF480604FF41671CDE90040CDE94E
:1054F0000241FF220495CDE905240522CDE90702EA
:10550000CA06CDE90A018DF8304009928DF8314084
:105510008DF83240002269460548FDF7E1FD00287C
:1055200001D0FCF7B7FC0DB030BD000000680140B1
:10553000040E00200B4810B50949016000217F22AC
:10554000C0E90112FF22C0E9032141618161FEF738
:10555000B7FC002803D0BDE81040FCF79BBC10BD91
:1055600000280040AC0E002010B586B0002418487A
:1055700000940194029403940494144905940160E6
:1055800044F24F61C0E901146321C0E9031444618E
:105590008461FEF76BFE08B1FCF77CFC4FF4805091
:1055A000009069460A48FEF7E3FE08B1FCF772FC7A
:1055B0002020CDE9040404A90548FEF70FFE0028C9
:1055C00001D0FCF767FC06B010BD000000040140EC
:1055D000CC0E002010B520F0B9FFBDE8104020F03F
:1055E000B7BF70470C4810B50A4901604FF4E1316C
:1055F0004160002181600C22C160C0E90412816118
:10560000C161FFF7CBF9002803D0BDE81040FCF7DB
:1056100041BC10BD00100140140F0020FEE7FEE762
:10562000010901EB810100F00F0000EB4100C0B265
:105630007047002102E00A38C0B2491C0A28FAD299
:10564000090740EA116070472DE9F04104460068FF
:105650000025C168490618D4C16841F08001C160C5
:10566000FDF704FA06464FF47A78042707E000BFF6
:10567000FDF7FCF9801B404501D9677701252068BB
:10568000C068400601D4002DF2D02846BDE8F08164
:1056900070B5044600680025C16821F08001C16032
:1056A00020688068800606D42046FEF721FD10B1F0
:1056B000042060770125284670BD0621AFF30080E5
:1056C0001FB50022009001AB012083E807001446BB
:1056D00069460C48FCF7ACFC18B90A48FCF722FEF6
:1056E00010B1002004B010BD0A210648FCF7C4FD2B
:1056F00018B90448FCF750FD84B20248FCF790FE4C
:105700002046EFE7F40C002000680D49884215D1CF
:105710000C4801780A0611D521F0100101700A0722
:1057200002D141F040010170C9B201F00F020E2A0E
:1057300001D2491C01E001F07001017070470000C6
:10574000000001405C0100207FB5064601250020D5
:1057500003901020CDE90050AC1E22466946304629
:105760000295FEF71BFD08B1FCF794FB0120FCF746
:10577000CBFF02200090224669463046FEF70EFD20
:1057800008B1FCF787FB0320009008200290224616
:1057900069463046FEF702FD08B1FCF77BFB4FF48B
:1057A0000C70CDE902500421009122466946304632
:1057B000FEF7F4FC08B1FCF76DFB40F26A5130468D
:1057C000FEF7D5FC002801D0FCF764FB7FBD00008C
:1057D0004FF47A7110FB01F0C11700EB5150C11268
:1057E000B1F5004F02DB47F6FF7070470248814277
:1057F000FBDB08B2704700000080FFFF10B5094CCA
:105800004FF0FF3120681FF0EBFA0748002100F845
:105810003F1F41700549012088712068BDE8104094
:105820001FF03BBB68000020E402002004000020C1
:1058300000EE100A30B52449B8EE400ADFED210A27
:1058400091ED091A4A8931EE001A00EE102AB8EEDD
:10585000400A31EE400A20EE200A81ED090ABDEE31
:10586000C00A488110EE100A10F5006001D5002230
:1058700006E0B0F5805F02DB40F6FF7200E082B226
:1058800011480C79114BC078052C02D2641C0C71A4
:1058900004E033F810408D6A2C1B8C6223F8102032
:1058A0008B6A401C1A44C0B28A62C870052801D3B2
:1058B0000020C870087902EB5001B1FBF0F080B213
:1058C00030BD000048E17A3F04000020D8070020E6
:1058D00070B504000FD0084D4FF0FF3128681FF05D
:1058E0007FFA442205492046FAF713FD2868BDE8EF
:1058F00070401FF0D2BA70BD68000020E4020020A2
:1059000070B544210748FAF71DFD4FF4006528469D
:1059100000F062F8034C04A0658000F009F884F8F8
:105920002E0070BDE4020020626F6F740000000062
:105930007FB5054600208DF808008DF80C001FF09B
:1059400033F90A26012302AAFF21AE200096FBF7B5
:10595000BFFA0446012303AAFE21AE200096FBF7FE
:10596000B7FACDE9004006469DF80C309DF80820B6
:10597000294605A01DF092FB344302D0002004B05C
:1059800070BD0120FBE700005B4D415833303130E2
:10599000325D20696E697420257320706172743DD8
:1059A000307825303258207665723D307825303297
:1059B00058207374617475733D256C642F256C6475
:1059C0000D0A0000401A00D54042322801DD0120B6
:1059D000704700207047000010B50D499FED0B0A7D
:1059E000002281ED090A4881CA7005200871094C1E
:1059F00010464FF400638A6224F81030401CC0B295
:105A000002F500620528F7D38A6210BD000000008D
:105A100004000020D807002070B50C4D06464FF05A
:105A2000FF3128681FF0DCF9094C46B10120607194
:105A30002088FFF7D1FF4FF40060608001E0002074
:105A400060712868BDE870401FF027BA6800002028
:105A5000E402002070B5114C05464FF0FF3120687C
:105A60001FF0BEF900210E4A002D02D04FF00100B8
:105A700001E04FF0000082F83C0082F83E1004D0B4
:105A800008494FF00100887102E002F83F1F517091
:105A90002068BDE870401FF000BA000068000020D8
:105AA000E40200200400002070B50D4C05464FF0C4
:105AB000FF3120681FF094F90A4800214DB10122FE
:105AC00002750A489FED080A80ED080A417082704D
:105AD00000E001752068BDE870401FF0DEB90000ED
